{
  "_format": "hh-sol-artifact-1",
  "contractName": "DePoll",
  "sourceName": "contracts/DePoll.sol",
  "abi": [
    {
      "inputs": [],
      "stateMutability": "nonpayable",
      "type": "constructor"
    },
    {
      "inputs": [
        {
          "internalType": "string",
          "name": "_avatarUrl",
          "type": "string"
        },
        {
          "internalType": "string",
          "name": "_title",
          "type": "string"
        },
        {
          "internalType": "string",
          "name": "_about",
          "type": "string"
        }
      ],
      "name": "createPoll",
      "outputs": [],
      "stateMutability": "nonpayable",
      "type": "function"
    },
    {
      "inputs": [
        {
          "internalType": "address",
          "name": "_pollOwnerAddress",
          "type": "address"
        },
        {
          "internalType": "uint256",
          "name": "_proposalIndex",
          "type": "uint256"
        }
      ],
      "name": "downvote",
      "outputs": [],
      "stateMutability": "payable",
      "type": "function"
    },
    {
      "inputs": [
        {
          "internalType": "string",
          "name": "_avatarUrl",
          "type": "string"
        },
        {
          "internalType": "string",
          "name": "_title",
          "type": "string"
        },
        {
          "internalType": "string",
          "name": "_about",
          "type": "string"
        }
      ],
      "name": "editPoll",
      "outputs": [],
      "stateMutability": "nonpayable",
      "type": "function"
    },
    {
      "inputs": [],
      "name": "endCycle",
      "outputs": [],
      "stateMutability": "nonpayable",
      "type": "function"
    },
    {
      "inputs": [
        {
          "internalType": "address",
          "name": "_pollOwnerAddress",
          "type": "address"
        },
        {
          "internalType": "uint256",
          "name": "_proposalIndex",
          "type": "uint256"
        }
      ],
      "name": "getProposal",
      "outputs": [
        {
          "components": [
            {
              "internalType": "string",
              "name": "title",
              "type": "string"
            },
            {
              "internalType": "address",
              "name": "createdBy",
              "type": "address"
            },
            {
              "internalType": "address[]",
              "name": "upvotes",
              "type": "address[]"
            },
            {
              "internalType": "address[]",
              "name": "downvotes",
              "type": "address[]"
            }
          ],
          "internalType": "struct DePoll.Proposal",
          "name": "",
          "type": "tuple"
        }
      ],
      "stateMutability": "view",
      "type": "function"
    },
    {
      "inputs": [
        {
          "internalType": "address",
          "name": "_pollOwnerAddress",
          "type": "address"
        }
      ],
      "name": "getProposalCount",
      "outputs": [
        {
          "internalType": "uint256",
          "name": "count",
          "type": "uint256"
        }
      ],
      "stateMutability": "view",
      "type": "function"
    },
    {
      "inputs": [
        {
          "internalType": "address",
          "name": "_pollOwnerAddress",
          "type": "address"
        },
        {
          "internalType": "uint256",
          "name": "_cycleIndex",
          "type": "uint256"
        }
      ],
      "name": "getProposalRange",
      "outputs": [
        {
          "internalType": "uint256[]",
          "name": "proposalRange",
          "type": "uint256[]"
        }
      ],
      "stateMutability": "view",
      "type": "function"
    },
    {
      "inputs": [
        {
          "internalType": "address",
          "name": "_pollOwnerAddress",
          "type": "address"
        },
        {
          "internalType": "uint256",
          "name": "_startIdx",
          "type": "uint256"
        },
        {
          "internalType": "uint256",
          "name": "_cutoff",
          "type": "uint256"
        }
      ],
      "name": "getTotalContributed",
      "outputs": [
        {
          "internalType": "uint256",
          "name": "",
          "type": "uint256"
        }
      ],
      "stateMutability": "view",
      "type": "function"
    },
    {
      "inputs": [
        {
          "internalType": "address",
          "name": "_pollOwnerAddress",
          "type": "address"
        },
        {
          "internalType": "uint256",
          "name": "_startIdx",
          "type": "uint256"
        },
        {
          "internalType": "uint256",
          "name": "_cutoff",
          "type": "uint256"
        }
      ],
      "name": "getWinningProposals",
      "outputs": [
        {
          "internalType": "uint256[]",
          "name": "proposalIdxs",
          "type": "uint256[]"
        }
      ],
      "stateMutability": "view",
      "type": "function"
    },
    {
      "inputs": [
        {
          "internalType": "address",
          "name": "",
          "type": "address"
        }
      ],
      "name": "polls",
      "outputs": [
        {
          "internalType": "bool",
          "name": "isActive",
          "type": "bool"
        },
        {
          "internalType": "string",
          "name": "avatarUrl",
          "type": "string"
        },
        {
          "internalType": "string",
          "name": "title",
          "type": "string"
        },
        {
          "internalType": "string",
          "name": "about",
          "type": "string"
        },
        {
          "internalType": "uint256",
          "name": "createdTimestamp",
          "type": "uint256"
        }
      ],
      "stateMutability": "view",
      "type": "function"
    },
    {
      "inputs": [
        {
          "internalType": "address",
          "name": "_pollOwnerAddress",
          "type": "address"
        },
        {
          "internalType": "string",
          "name": "_title",
          "type": "string"
        }
      ],
      "name": "propose",
      "outputs": [],
      "stateMutability": "payable",
      "type": "function"
    },
    {
      "inputs": [
        {
          "internalType": "address",
          "name": "_pollOwnerAddress",
          "type": "address"
        },
        {
          "internalType": "uint256",
          "name": "_proposalIndex",
          "type": "uint256"
        }
      ],
      "name": "upvote",
      "outputs": [],
      "stateMutability": "payable",
      "type": "function"
    }
  ],
  "bytecode": "0x608060405234801561001057600080fd5b50613675806100206000396000f3fe6080604052600436106100a75760003560e01c8063cfa38da711610064578063cfa38da7146101d7578063d6f0948c14610214578063dcd6b5da14610230578063e201201c14610259578063e6d973bd14610282578063ec511370146102bf576100a7565b8063084a4faf146100ac578063182b933c146100c35780637dd0888914610100578063a1bfcaca1461013d578063c3dfae971461017a578063cc858b2c146101bb575b600080fd5b3480156100b857600080fd5b506100c16102db565b005b3480156100cf57600080fd5b506100ea60048036038101906100e59190612c24565b610e24565b6040516100f791906130c2565b60405180910390f35b34801561010c57600080fd5b5061012760048036038101906101229190612c24565b611151565b6040516101349190612fb6565b60405180910390f35b34801561014957600080fd5b50610164600480360381019061015f9190612b6b565b611716565b60405161017191906130c2565b60405180910390f35b34801561018657600080fd5b506101a1600480360381019061019c9190612b6b565b611764565b6040516101b2959493929190612fd8565b60405180910390f35b6101d560048036038101906101d09190612be8565b61193f565b005b3480156101e357600080fd5b506101fe60048036038101906101f99190612be8565b611a77565b60405161020b91906130a0565b60405180910390f35b61022e60048036038101906102299190612b94565b611d1d565b005b34801561023c57600080fd5b5061025760048036038101906102529190612c73565b611ebf565b005b34801561026557600080fd5b50610280600480360381019061027b9190612c73565b611fc6565b005b34801561028e57600080fd5b506102a960048036038101906102a49190612be8565b61208f565b6040516102b69190612fb6565b60405180910390f35b6102d960048036038101906102d49190612be8565b612744565b005b600033905060008060003373ffffffffffffffffffffffffffffffffffffffff1673ffffffffffffffffffffffffffffffffffffffff1681526020019081526020016000206006018054905090506000610335838361208f565b905080600181518110610371577f4e487b7100000000000000000000000000000000000000000000000000000000600052603260045260246000fd5b6020026020010151816000815181106103b3577f4e487b7100000000000000000000000000000000000000000000000000000000600052603260045260246000fd5b6020026020010151106103fb576040517f08c379a00000000000000000000000000000000000000000000000000000000081526004016103f290613040565b60405180910390fd5b600061048a848360008151811061043b577f4e487b7100000000000000000000000000000000000000000000000000000000600052603260045260246000fd5b60200260200101518460018151811061047d577f4e487b7100000000000000000000000000000000000000000000000000000000600052603260045260246000fd5b6020026020010151610e24565b9050600061051b85846000815181106104cc577f4e487b7100000000000000000000000000000000000000000000000000000000600052603260045260246000fd5b60200260200101518560018151811061050e577f4e487b7100000000000000000000000000000000000000000000000000000000600052603260045260246000fd5b6020026020010151611151565b90506000815190506000805b8281101561084b5760008060008a73ffffffffffffffffffffffffffffffffffffffff1673ffffffffffffffffffffffffffffffffffffffff1681526020019081526020016000206005018583815181106105ab577f4e487b7100000000000000000000000000000000000000000000000000000000600052603260045260246000fd5b6020026020010151815481106105ea577f4e487b7100000000000000000000000000000000000000000000000000000000600052603260045260246000fd5b90600052602060002090600402016040518060800160405290816000820180546106139061341a565b80601f016020809104026020016040519081016040528092919081815260200182805461063f9061341a565b801561068c5780601f106106615761010080835404028352916020019161068c565b820191906000526020600020905b81548152906001019060200180831161066f57829003601f168201915b505050505081526020016001820160009054906101000a900473ffffffffffffffffffffffffffffffffffffffff1673ffffffffffffffffffffffffffffffffffffffff1673ffffffffffffffffffffffffffffffffffffffff1681526020016002820180548060200260200160405190810160405280929190818152602001828054801561077057602002820191906000526020600020905b8160009054906101000a900473ffffffffffffffffffffffffffffffffffffffff1673ffffffffffffffffffffffffffffffffffffffff1681526020019060010190808311610726575b50505050508152602001600382018054806020026020016040519081016040528092919081815260200182805480156107fe57602002820191906000526020600020905b8160009054906101000a900473ffffffffffffffffffffffffffffffffffffffff1673ffffffffffffffffffffffffffffffffffffffff16815260200190600101908083116107b4575b5050505050815250509050600a8361081691906131dd565b9250600181604001515161082a9190613264565b8361083591906131dd565b92505080806108439061347d565b915050610527565b506000818561085a9190613233565b90506000828261086a9190613264565b866108759190613352565b905060005b84811015610d6c5760008060008c73ffffffffffffffffffffffffffffffffffffffff1673ffffffffffffffffffffffffffffffffffffffff1681526020019081526020016000206005018783815181106108fe577f4e487b7100000000000000000000000000000000000000000000000000000000600052603260045260246000fd5b60200260200101518154811061093d577f4e487b7100000000000000000000000000000000000000000000000000000000600052603260045260246000fd5b90600052602060002090600402016040518060800160405290816000820180546109669061341a565b80601f01602080910402602001604051908101604052809291908181526020018280546109929061341a565b80156109df5780601f106109b4576101008083540402835291602001916109df565b820191906000526020600020905b8154815290600101906020018083116109c257829003601f168201915b505050505081526020016001820160009054906101000a900473ffffffffffffffffffffffffffffffffffffffff1673ffffffffffffffffffffffffffffffffffffffff1673ffffffffffffffffffffffffffffffffffffffff16815260200160028201805480602002602001604051908101604052809291908181526020018280548015610ac357602002820191906000526020600020905b8160009054906101000a900473ffffffffffffffffffffffffffffffffffffffff1673ffffffffffffffffffffffffffffffffffffffff1681526020019060010190808311610a79575b5050505050815260200160038201805480602002602001604051908101604052809291908181526020018280548015610b5157602002820191906000526020600020905b8160009054906101000a900473ffffffffffffffffffffffffffffffffffffffff1673ffffffffffffffffffffffffffffffffffffffff1681526020019060010190808311610b07575b50505050508152505090506000600a85610b6b9190613264565b90506000831415610b85578381610b8291906131dd565b90505b6000826020015173ffffffffffffffffffffffffffffffffffffffff1682604051610baf90612fa1565b60006040518083038185875af1925050503d8060008114610bec576040519150601f19603f3d011682016040523d82523d6000602084013e610bf1565b606091505b5050905080610c35576040517f08c379a0000000000000000000000000000000000000000000000000000000008152600401610c2c90613060565b60405180910390fd5b60005b836040015151811015610d5557600084604001518281518110610c84577f4e487b7100000000000000000000000000000000000000000000000000000000600052603260045260246000fd5b602002602001015173ffffffffffffffffffffffffffffffffffffffff16600189610caf9190613264565b604051610cbb90612fa1565b60006040518083038185875af1925050503d8060008114610cf8576040519150601f19603f3d011682016040523d82523d6000602084013e610cfd565b606091505b5050905080610d41576040517f08c379a0000000000000000000000000000000000000000000000000000000008152600401610d3890613060565b60405180910390fd5b508080610d4d9061347d565b915050610c38565b505050508080610d649061347d565b91505061087a565b506000808a73ffffffffffffffffffffffffffffffffffffffff1673ffffffffffffffffffffffffffffffffffffffff1681526020019081526020016000206006016000808b73ffffffffffffffffffffffffffffffffffffffff1673ffffffffffffffffffffffffffffffffffffffff168152602001908152602001600020600501805490509080600181540180825580915050600190039060005260206000200160009091909190915055505050505050505050565b6000806000905060008490505b838110156111455760008060008873ffffffffffffffffffffffffffffffffffffffff1673ffffffffffffffffffffffffffffffffffffffff1681526020019081526020016000206005018281548110610eb4577f4e487b7100000000000000000000000000000000000000000000000000000000600052603260045260246000fd5b9060005260206000209060040201604051806080016040529081600082018054610edd9061341a565b80601f0160208091040260200160405190810160405280929190818152602001828054610f099061341a565b8015610f565780601f10610f2b57610100808354040283529160200191610f56565b820191906000526020600020905b815481529060010190602001808311610f3957829003601f168201915b505050505081526020016001820160009054906101000a900473ffffffffffffffffffffffffffffffffffffffff1673ffffffffffffffffffffffffffffffffffffffff1673ffffffffffffffffffffffffffffffffffffffff1681526020016002820180548060200260200160405190810160405280929190818152602001828054801561103a57602002820191906000526020600020905b8160009054906101000a900473ffffffffffffffffffffffffffffffffffffffff1673ffffffffffffffffffffffffffffffffffffffff1681526020019060010190808311610ff0575b50505050508152602001600382018054806020026020016040519081016040528092919081815260200182805480156110c857602002820191906000526020600020905b8160009054906101000a900473ffffffffffffffffffffffffffffffffffffffff1673ffffffffffffffffffffffffffffffffffffffff168152602001906001019080831161107e575b50505050508152505090506608e1bc9bf04000836110e691906131dd565b925065e35fa931a0008160400151516110ff9190613264565b8361110a91906131dd565b92506601c6bf526340008160600151516111249190613264565b8361112f91906131dd565b925050808061113d9061347d565b915050610e31565b50809150509392505050565b606060007ffffffffffffffffffffffffffffffffffffffffffffffffffffffffffffffc1890506000600567ffffffffffffffff8111156111bb577f4e487b7100000000000000000000000000000000000000000000000000000000600052604160045260246000fd5b6040519080825280602002602001820160405280156111e95781602001602082028036833780820191505090505b5090506000808690505b858110156115ef5760008060008a73ffffffffffffffffffffffffffffffffffffffff1673ffffffffffffffffffffffffffffffffffffffff1681526020019081526020016000206005018281548110611276577f4e487b7100000000000000000000000000000000000000000000000000000000600052603260045260246000fd5b906000526020600020906004020160405180608001604052908160008201805461129f9061341a565b80601f01602080910402602001604051908101604052809291908181526020018280546112cb9061341a565b80156113185780601f106112ed57610100808354040283529160200191611318565b820191906000526020600020905b8154815290600101906020018083116112fb57829003601f168201915b505050505081526020016001820160009054906101000a900473ffffffffffffffffffffffffffffffffffffffff1673ffffffffffffffffffffffffffffffffffffffff1673ffffffffffffffffffffffffffffffffffffffff168152602001600282018054806020026020016040519081016040528092919081815260200182805480156113fc57602002820191906000526020600020905b8160009054906101000a900473ffffffffffffffffffffffffffffffffffffffff1673ffffffffffffffffffffffffffffffffffffffff16815260200190600101908083116113b2575b505050505081526020016003820180548060200260200160405190810160405280929190818152602001828054801561148a57602002820191906000526020600020905b8160009054906101000a900473ffffffffffffffffffffffffffffffffffffffff1673ffffffffffffffffffffffffffffffffffffffff1681526020019060010190808311611440575b505050505081525050905060008160600151518260400151516114ad91906132be565b90508581131561157c57809550600567ffffffffffffffff8111156114fb577f4e487b7100000000000000000000000000000000000000000000000000000000600052604160045260246000fd5b6040519080825280602002602001820160405280156115295781602001602082028036833780820191505090505b5094508285600081518110611567577f4e487b7100000000000000000000000000000000000000000000000000000000600052603260045260246000fd5b602002602001018181525050600193506115da565b858114156115d957828585815181106115be577f4e487b7100000000000000000000000000000000000000000000000000000000600052603260045260246000fd5b60200260200101818152505083806115d59061347d565b9450505b5b505080806115e79061347d565b9150506111f3565b5060008167ffffffffffffffff811115611632577f4e487b7100000000000000000000000000000000000000000000000000000000600052604160045260246000fd5b6040519080825280602002602001820160405280156116605781602001602082028036833780820191505090505b50905060005b82811015611707578381815181106116a7577f4e487b7100000000000000000000000000000000000000000000000000000000600052603260045260246000fd5b60200260200101518282815181106116e8577f4e487b7100000000000000000000000000000000000000000000000000000000600052603260045260246000fd5b60200260200101818152505080806116ff9061347d565b915050611666565b50809450505050509392505050565b60008060008373ffffffffffffffffffffffffffffffffffffffff1673ffffffffffffffffffffffffffffffffffffffff168152602001908152602001600020600501805490509050919050565b60006020528060005260406000206000915090508060000160009054906101000a900460ff169080600101805461179a9061341a565b80601f01602080910402602001604051908101604052809291908181526020018280546117c69061341a565b80156118135780601f106117e857610100808354040283529160200191611813565b820191906000526020600020905b8154815290600101906020018083116117f657829003601f168201915b5050505050908060020180546118289061341a565b80601f01602080910402602001604051908101604052809291908181526020018280546118549061341a565b80156118a15780601f10611876576101008083540402835291602001916118a1565b820191906000526020600020905b81548152906001019060200180831161188457829003601f168201915b5050505050908060030180546118b69061341a565b80601f01602080910402602001604051908101604052809291908181526020018280546118e29061341a565b801561192f5780601f106119045761010080835404028352916020019161192f565b820191906000526020600020905b81548152906001019060200180831161191257829003601f168201915b5050505050908060040154905085565b6601c6bf526340003414611988576040517f08c379a000000000000000000000000000000000000000000000000000000000815260040161197f90613080565b60405180910390fd5b6000808373ffffffffffffffffffffffffffffffffffffffff1673ffffffffffffffffffffffffffffffffffffffff1681526020019081526020016000206005018181548110611a01577f4e487b7100000000000000000000000000000000000000000000000000000000600052603260045260246000fd5b9060005260206000209060040201600301339080600181540180825580915050600190039060005260206000200160009091909190916101000a81548173ffffffffffffffffffffffffffffffffffffffff021916908373ffffffffffffffffffffffffffffffffffffffff1602179055505050565b611a7f61287b565b6000808473ffffffffffffffffffffffffffffffffffffffff1673ffffffffffffffffffffffffffffffffffffffff1681526020019081526020016000206005018281548110611af8577f4e487b7100000000000000000000000000000000000000000000000000000000600052603260045260246000fd5b9060005260206000209060040201604051806080016040529081600082018054611b219061341a565b80601f0160208091040260200160405190810160405280929190818152602001828054611b4d9061341a565b8015611b9a5780601f10611b6f57610100808354040283529160200191611b9a565b820191906000526020600020905b815481529060010190602001808311611b7d57829003601f168201915b505050505081526020016001820160009054906101000a900473ffffffffffffffffffffffffffffffffffffffff1673ffffffffffffffffffffffffffffffffffffffff1673ffffffffffffffffffffffffffffffffffffffff16815260200160028201805480602002602001604051908101604052809291908181526020018280548015611c7e57602002820191906000526020600020905b8160009054906101000a900473ffffffffffffffffffffffffffffffffffffffff1673ffffffffffffffffffffffffffffffffffffffff1681526020019060010190808311611c34575b5050505050815260200160038201805480602002602001604051908101604052809291908181526020018280548015611d0c57602002820191906000526020600020905b8160009054906101000a900473ffffffffffffffffffffffffffffffffffffffff1673ffffffffffffffffffffffffffffffffffffffff1681526020019060010190808311611cc2575b505050505081525050905092915050565b6608e1bc9bf040003414611d66576040517f08c379a0000000000000000000000000000000000000000000000000000000008152600401611d5d90613080565b60405180910390fd5b611d6e61287b565b81816000018190525033816020019073ffffffffffffffffffffffffffffffffffffffff16908173ffffffffffffffffffffffffffffffffffffffff16815250506000808473ffffffffffffffffffffffffffffffffffffffff1673ffffffffffffffffffffffffffffffffffffffff1681526020019081526020016000206005018190806001815401808255809150506001900390600052602060002090600402016000909190919091506000820151816000019080519060200190611e369291906128b9565b5060208201518160010160006101000a81548173ffffffffffffffffffffffffffffffffffffffff021916908373ffffffffffffffffffffffffffffffffffffffff1602179055506040820151816002019080519060200190611e9a92919061293f565b506060820151816003019080519060200190611eb792919061293f565b505050505050565b826000803373ffffffffffffffffffffffffffffffffffffffff1673ffffffffffffffffffffffffffffffffffffffff1681526020019081526020016000206001019080519060200190611f149291906128b9565b50816000803373ffffffffffffffffffffffffffffffffffffffff1673ffffffffffffffffffffffffffffffffffffffff1681526020019081526020016000206002019080519060200190611f6a9291906128b9565b50806000803373ffffffffffffffffffffffffffffffffffffffff1673ffffffffffffffffffffffffffffffffffffffff1681526020019081526020016000206003019080519060200190611fc09291906128b9565b50505050565b60008060003373ffffffffffffffffffffffffffffffffffffffff1673ffffffffffffffffffffffffffffffffffffffff168152602001908152602001600020905060018160000160006101000a81548160ff0219169083151502179055508381600101908051906020019061203d9291906128b9565b50828160020190805190602001906120569291906128b9565b508181600301908051906020019061206f9291906128b9565b5042816004018190555080600501600061208991906129c9565b50505050565b606060008060008573ffffffffffffffffffffffffffffffffffffffff1673ffffffffffffffffffffffffffffffffffffffff1681526020019081526020016000206040518060e00160405290816000820160009054906101000a900460ff161515151581526020016001820180546121079061341a565b80601f01602080910402602001604051908101604052809291908181526020018280546121339061341a565b80156121805780601f1061215557610100808354040283529160200191612180565b820191906000526020600020905b81548152906001019060200180831161216357829003601f168201915b505050505081526020016002820180546121999061341a565b80601f01602080910402602001604051908101604052809291908181526020018280546121c59061341a565b80156122125780601f106121e757610100808354040283529160200191612212565b820191906000526020600020905b8154815290600101906020018083116121f557829003601f168201915b5050505050815260200160038201805461222b9061341a565b80601f01602080910402602001604051908101604052809291908181526020018280546122579061341a565b80156122a45780601f10612279576101008083540402835291602001916122a4565b820191906000526020600020905b81548152906001019060200180831161228757829003601f168201915b505050505081526020016004820154815260200160058201805480602002602001604051908101604052809291908181526020016000905b82821015612512578382906000526020600020906004020160405180608001604052908160008201805461230f9061341a565b80601f016020809104026020016040519081016040528092919081815260200182805461233b9061341a565b80156123885780601f1061235d57610100808354040283529160200191612388565b820191906000526020600020905b81548152906001019060200180831161236b57829003601f168201915b505050505081526020016001820160009054906101000a900473ffffffffffffffffffffffffffffffffffffffff1673ffffffffffffffffffffffffffffffffffffffff1673ffffffffffffffffffffffffffffffffffffffff1681526020016002820180548060200260200160405190810160405280929190818152602001828054801561246c57602002820191906000526020600020905b8160009054906101000a900473ffffffffffffffffffffffffffffffffffffffff1673ffffffffffffffffffffffffffffffffffffffff1681526020019060010190808311612422575b50505050508152602001600382018054806020026020016040519081016040528092919081815260200182805480156124fa57602002820191906000526020600020905b8160009054906101000a900473ffffffffffffffffffffffffffffffffffffffff1673ffffffffffffffffffffffffffffffffffffffff16815260200190600101908083116124b0575b505050505081525050815260200190600101906122dc565b5050505081526020016006820180548060200260200160405190810160405280929190818152602001828054801561256957602002820191906000526020600020905b815481526020019060010190808311612555575b505050505081525050905060008160a00151905060008260c0015190506000808611156125e0578160018761259e9190613352565b815181106125d5577f4e487b7100000000000000000000000000000000000000000000000000000000600052603260045260246000fd5b602002602001015190505b600083519050825187101561263357828781518110612628577f4e487b7100000000000000000000000000000000000000000000000000000000600052603260045260246000fd5b602002602001015190505b6000600267ffffffffffffffff811115612676577f4e487b7100000000000000000000000000000000000000000000000000000000600052604160045260246000fd5b6040519080825280602002602001820160405280156126a45781602001602082028036833780820191505090505b50905082816000815181106126e2577f4e487b7100000000000000000000000000000000000000000000000000000000600052603260045260246000fd5b6020026020010181815250508181600181518110612729577f4e487b7100000000000000000000000000000000000000000000000000000000600052603260045260246000fd5b60200260200101818152505080965050505050505092915050565b65e35fa931a000341461278c576040517f08c379a000000000000000000000000000000000000000000000000000000000815260040161278390613080565b60405180910390fd5b6000808373ffffffffffffffffffffffffffffffffffffffff1673ffffffffffffffffffffffffffffffffffffffff1681526020019081526020016000206005018181548110612805577f4e487b7100000000000000000000000000000000000000000000000000000000600052603260045260246000fd5b9060005260206000209060040201600201339080600181540180825580915050600190039060005260206000200160009091909190916101000a81548173ffffffffffffffffffffffffffffffffffffffff021916908373ffffffffffffffffffffffffffffffffffffffff1602179055505050565b604051806080016040528060608152602001600073ffffffffffffffffffffffffffffffffffffffff16815260200160608152602001606081525090565b8280546128c59061341a565b90600052602060002090601f0160209004810192826128e7576000855561292e565b82601f1061290057805160ff191683800117855561292e565b8280016001018555821561292e579182015b8281111561292d578251825591602001919060010190612912565b5b50905061293b91906129ed565b5090565b8280548282559060005260206000209081019282156129b8579160200282015b828111156129b75782518260006101000a81548173ffffffffffffffffffffffffffffffffffffffff021916908373ffffffffffffffffffffffffffffffffffffffff1602179055509160200191906001019061295f565b5b5090506129c591906129ed565b5090565b50805460008255600402906000526020600020908101906129ea9190612a0a565b50565b5b80821115612a065760008160009055506001016129ee565b5090565b5b80821115612a745760008082016000612a249190612a78565b6001820160006101000a81549073ffffffffffffffffffffffffffffffffffffffff0219169055600282016000612a5b9190612ab8565b600382016000612a6b9190612ab8565b50600401612a0b565b5090565b508054612a849061341a565b6000825580601f10612a965750612ab5565b601f016020900490600052602060002090810190612ab491906129ed565b5b50565b5080546000825590600052602060002090810190612ad691906129ed565b50565b6000612aec612ae784613102565b6130dd565b905082815260208101848484011115612b0457600080fd5b612b0f8482856133d8565b509392505050565b600081359050612b2681613611565b92915050565b600082601f830112612b3d57600080fd5b8135612b4d848260208601612ad9565b91505092915050565b600081359050612b6581613628565b92915050565b600060208284031215612b7d57600080fd5b6000612b8b84828501612b17565b91505092915050565b60008060408385031215612ba757600080fd5b6000612bb585828601612b17565b925050602083013567ffffffffffffffff811115612bd257600080fd5b612bde85828601612b2c565b9150509250929050565b60008060408385031215612bfb57600080fd5b6000612c0985828601612b17565b9250506020612c1a85828601612b56565b9150509250929050565b600080600060608486031215612c3957600080fd5b6000612c4786828701612b17565b9350506020612c5886828701612b56565b9250506040612c6986828701612b56565b9150509250925092565b600080600060608486031215612c8857600080fd5b600084013567ffffffffffffffff811115612ca257600080fd5b612cae86828701612b2c565b935050602084013567ffffffffffffffff811115612ccb57600080fd5b612cd786828701612b2c565b925050604084013567ffffffffffffffff811115612cf457600080fd5b612d0086828701612b2c565b9150509250925092565b6000612d168383612d3a565b60208301905092915050565b6000612d2e8383612f83565b60208301905092915050565b612d4381613386565b82525050565b6000612d5482613153565b612d5e818561318e565b9350612d6983613133565b8060005b83811015612d9a578151612d818882612d0a565b9750612d8c83613174565b925050600181019050612d6d565b5085935050505092915050565b6000612db28261315e565b612dbc818561319f565b9350612dc783613143565b8060005b83811015612df8578151612ddf8882612d22565b9750612dea83613181565b925050600181019050612dcb565b5085935050505092915050565b612e0e81613398565b82525050565b6000612e1f82613169565b612e2981856131bb565b9350612e398185602086016133e7565b612e4281613582565b840191505092915050565b6000612e5882613169565b612e6281856131cc565b9350612e728185602086016133e7565b612e7b81613582565b840191505092915050565b6000612e93601a836131cc565b9150612e9e82613593565b602082019050919050565b6000612eb66014836131cc565b9150612ec1826135bc565b602082019050919050565b6000612ed96017836131cc565b9150612ee4826135e5565b602082019050919050565b6000612efc6000836131b0565b9150612f078261360e565b600082019050919050565b60006080830160008301518482036000860152612f2f8282612e14565b9150506020830151612f446020860182612d3a565b5060408301518482036040860152612f5c8282612d49565b91505060608301518482036060860152612f768282612d49565b9150508091505092915050565b612f8c816133ce565b82525050565b612f9b816133ce565b82525050565b6000612fac82612eef565b9150819050919050565b60006020820190508181036000830152612fd08184612da7565b905092915050565b600060a082019050612fed6000830188612e05565b8181036020830152612fff8187612e4d565b905081810360408301526130138186612e4d565b905081810360608301526130278185612e4d565b90506130366080830184612f92565b9695505050505050565b6000602082019050818103600083015261305981612e86565b9050919050565b6000602082019050818103600083015261307981612ea9565b9050919050565b6000602082019050818103600083015261309981612ecc565b9050919050565b600060208201905081810360008301526130ba8184612f12565b905092915050565b60006020820190506130d76000830184612f92565b92915050565b60006130e76130f8565b90506130f3828261344c565b919050565b6000604051905090565b600067ffffffffffffffff82111561311d5761311c613553565b5b61312682613582565b9050602081019050919050565b6000819050602082019050919050565b6000819050602082019050919050565b600081519050919050565b600081519050919050565b600081519050919050565b6000602082019050919050565b6000602082019050919050565b600082825260208201905092915050565b600082825260208201905092915050565b600081905092915050565b600082825260208201905092915050565b600082825260208201905092915050565b60006131e8826133ce565b91506131f3836133ce565b9250827fffffffffffffffffffffffffffffffffffffffffffffffffffffffffffffffff03821115613228576132276134c6565b5b828201905092915050565b600061323e826133ce565b9150613249836133ce565b925082613259576132586134f5565b5b828204905092915050565b600061326f826133ce565b915061327a836133ce565b9250817fffffffffffffffffffffffffffffffffffffffffffffffffffffffffffffffff04831182151516156132b3576132b26134c6565b5b828202905092915050565b60006132c9826133a4565b91506132d4836133a4565b9250827f80000000000000000000000000000000000000000000000000000000000000000182126000841215161561330f5761330e6134c6565b5b827f7fffffffffffffffffffffffffffffffffffffffffffffffffffffffffffffff018213600084121615613347576133466134c6565b5b828203905092915050565b600061335d826133ce565b9150613368836133ce565b92508282101561337b5761337a6134c6565b5b828203905092915050565b6000613391826133ae565b9050919050565b60008115159050919050565b6000819050919050565b600073ffffffffffffffffffffffffffffffffffffffff82169050919050565b6000819050919050565b82818337600083830152505050565b60005b838110156134055780820151818401526020810190506133ea565b83811115613414576000848401525b50505050565b6000600282049050600182168061343257607f821691505b6020821081141561344657613445613524565b5b50919050565b61345582613582565b810181811067ffffffffffffffff8211171561347457613473613553565b5b80604052505050565b6000613488826133ce565b91507fffffffffffffffffffffffffffffffffffffffffffffffffffffffffffffffff8214156134bb576134ba6134c6565b5b600182019050919050565b7f4e487b7100000000000000000000000000000000000000000000000000000000600052601160045260246000fd5b7f4e487b7100000000000000000000000000000000000000000000000000000000600052601260045260246000fd5b7f4e487b7100000000000000000000000000000000000000000000000000000000600052602260045260246000fd5b7f4e487b7100000000000000000000000000000000000000000000000000000000600052604160045260246000fd5b6000601f19601f8301169050919050565b7f546865726520617265206e6f206e65772070726f706f73616c73000000000000600082015250565b7f4661696c656420746f2073656e64204574686572000000000000000000000000600082015250565b7f696e76616c696420616d6f756e7420737570706c696564000000000000000000600082015250565b50565b61361a81613386565b811461362557600080fd5b50565b613631816133ce565b811461363c57600080fd5b5056fea264697066735822122025bfcc1df1351b8dfbdea2270d6f4802aeb23ea42093547db0d785b1c985998a64736f6c63430008040033",
  "linkReferences": {},
  "deployedLinkReferences": {}
}