{
  "_format": "hh-sol-artifact-1",
  "contractName": "DePoll",
  "sourceName": "contracts/DePoll.sol",
  "abi": [
    {
      "inputs": [],
      "stateMutability": "nonpayable",
      "type": "constructor"
    },
    {
      "inputs": [
        {
          "internalType": "string",
          "name": "_avatarUrl",
          "type": "string"
        },
        {
          "internalType": "string",
          "name": "_title",
          "type": "string"
        },
        {
          "internalType": "string",
          "name": "_about",
          "type": "string"
        }
      ],
      "name": "createPoll",
      "outputs": [],
      "stateMutability": "nonpayable",
      "type": "function"
    },
    {
      "inputs": [
        {
          "internalType": "address",
          "name": "_pollOwnerAddress",
          "type": "address"
        },
        {
          "internalType": "uint256",
          "name": "_proposalIndex",
          "type": "uint256"
        }
      ],
      "name": "downvote",
      "outputs": [],
      "stateMutability": "payable",
      "type": "function"
    },
    {
      "inputs": [
        {
          "internalType": "string",
          "name": "_avatarUrl",
          "type": "string"
        },
        {
          "internalType": "string",
          "name": "_title",
          "type": "string"
        },
        {
          "internalType": "string",
          "name": "_about",
          "type": "string"
        }
      ],
      "name": "editPoll",
      "outputs": [],
      "stateMutability": "nonpayable",
      "type": "function"
    },
    {
      "inputs": [
        {
          "internalType": "address",
          "name": "_pollOwnerAddress",
          "type": "address"
        },
        {
          "internalType": "uint256",
          "name": "_proposalIndex",
          "type": "uint256"
        }
      ],
      "name": "getProposal",
      "outputs": [
        {
          "components": [
            {
              "internalType": "string",
              "name": "title",
              "type": "string"
            },
            {
              "internalType": "address",
              "name": "createdBy",
              "type": "address"
            },
            {
              "internalType": "address[]",
              "name": "upvotes",
              "type": "address[]"
            },
            {
              "internalType": "address[]",
              "name": "downvotes",
              "type": "address[]"
            }
          ],
          "internalType": "struct DePoll.Proposal",
          "name": "",
          "type": "tuple"
        }
      ],
      "stateMutability": "view",
      "type": "function"
    },
    {
      "inputs": [
        {
          "internalType": "address",
          "name": "_pollOwnerAddress",
          "type": "address"
        }
      ],
      "name": "getProposalCount",
      "outputs": [
        {
          "internalType": "uint256",
          "name": "count",
          "type": "uint256"
        }
      ],
      "stateMutability": "view",
      "type": "function"
    },
    {
      "inputs": [
        {
          "internalType": "address",
          "name": "",
          "type": "address"
        }
      ],
      "name": "polls",
      "outputs": [
        {
          "internalType": "bool",
          "name": "isActive",
          "type": "bool"
        },
        {
          "internalType": "string",
          "name": "avatarUrl",
          "type": "string"
        },
        {
          "internalType": "string",
          "name": "title",
          "type": "string"
        },
        {
          "internalType": "string",
          "name": "about",
          "type": "string"
        },
        {
          "internalType": "uint256",
          "name": "createdTimestamp",
          "type": "uint256"
        }
      ],
      "stateMutability": "view",
      "type": "function"
    },
    {
      "inputs": [
        {
          "internalType": "address",
          "name": "_pollOwnerAddress",
          "type": "address"
        },
        {
          "internalType": "string",
          "name": "_title",
          "type": "string"
        }
      ],
      "name": "propose",
      "outputs": [],
      "stateMutability": "payable",
      "type": "function"
    },
    {
      "inputs": [
        {
          "internalType": "address",
          "name": "_pollOwnerAddress",
          "type": "address"
        },
        {
          "internalType": "uint256",
          "name": "_proposalIndex",
          "type": "uint256"
        }
      ],
      "name": "upvote",
      "outputs": [],
      "stateMutability": "payable",
      "type": "function"
    }
  ],
  "bytecode": "0x608060405234801561001057600080fd5b506115e4806100206000396000f3fe60806040526004361061007b5760003560e01c8063d6f0948c1161004e578063d6f0948c14610157578063dcd6b5da14610173578063e201201c1461019c578063ec511370146101c55761007b565b8063a1bfcaca14610080578063c3dfae97146100bd578063cc858b2c146100fe578063cfa38da71461011a575b600080fd5b34801561008c57600080fd5b506100a760048036038101906100a29190610f81565b6101e1565b6040516100b49190611324565b60405180910390f35b3480156100c957600080fd5b506100e460048036038101906100df9190610f81565b61022f565b6040516100f595949392919061127a565b60405180910390f35b61011860048036038101906101139190610ffe565b61040a565b005b34801561012657600080fd5b50610141600480360381019061013c9190610ffe565b610542565b60405161014e9190611302565b60405180910390f35b610171600480360381019061016c9190610faa565b6107e8565b005b34801561017f57600080fd5b5061019a6004803603810190610195919061103a565b61098a565b005b3480156101a857600080fd5b506101c360048036038101906101be919061103a565b610a91565b005b6101df60048036038101906101da9190610ffe565b610b5a565b005b60008060008373ffffffffffffffffffffffffffffffffffffffff1673ffffffffffffffffffffffffffffffffffffffff168152602001908152602001600020600501805490509050919050565b60006020528060005260406000206000915090508060000160009054906101000a900460ff169080600101805461026590611485565b80601f016020809104026020016040519081016040528092919081815260200182805461029190611485565b80156102de5780601f106102b3576101008083540402835291602001916102de565b820191906000526020600020905b8154815290600101906020018083116102c157829003601f168201915b5050505050908060020180546102f390611485565b80601f016020809104026020016040519081016040528092919081815260200182805461031f90611485565b801561036c5780601f106103415761010080835404028352916020019161036c565b820191906000526020600020905b81548152906001019060200180831161034f57829003601f168201915b50505050509080600301805461038190611485565b80601f01602080910402602001604051908101604052809291908181526020018280546103ad90611485565b80156103fa5780601f106103cf576101008083540402835291602001916103fa565b820191906000526020600020905b8154815290600101906020018083116103dd57829003601f168201915b5050505050908060040154905085565b6601c6bf526340003414610453576040517f08c379a000000000000000000000000000000000000000000000000000000000815260040161044a906112e2565b60405180910390fd5b6000808373ffffffffffffffffffffffffffffffffffffffff1673ffffffffffffffffffffffffffffffffffffffff16815260200190815260200160002060050181815481106104cc577f4e487b7100000000000000000000000000000000000000000000000000000000600052603260045260246000fd5b9060005260206000209060040201600301339080600181540180825580915050600190039060005260206000200160009091909190916101000a81548173ffffffffffffffffffffffffffffffffffffffff021916908373ffffffffffffffffffffffffffffffffffffffff1602179055505050565b61054a610c91565b6000808473ffffffffffffffffffffffffffffffffffffffff1673ffffffffffffffffffffffffffffffffffffffff16815260200190815260200160002060050182815481106105c3577f4e487b7100000000000000000000000000000000000000000000000000000000600052603260045260246000fd5b90600052602060002090600402016040518060800160405290816000820180546105ec90611485565b80601f016020809104026020016040519081016040528092919081815260200182805461061890611485565b80156106655780601f1061063a57610100808354040283529160200191610665565b820191906000526020600020905b81548152906001019060200180831161064857829003601f168201915b505050505081526020016001820160009054906101000a900473ffffffffffffffffffffffffffffffffffffffff1673ffffffffffffffffffffffffffffffffffffffff1673ffffffffffffffffffffffffffffffffffffffff1681526020016002820180548060200260200160405190810160405280929190818152602001828054801561074957602002820191906000526020600020905b8160009054906101000a900473ffffffffffffffffffffffffffffffffffffffff1673ffffffffffffffffffffffffffffffffffffffff16815260200190600101908083116106ff575b50505050508152602001600382018054806020026020016040519081016040528092919081815260200182805480156107d757602002820191906000526020600020905b8160009054906101000a900473ffffffffffffffffffffffffffffffffffffffff1673ffffffffffffffffffffffffffffffffffffffff168152602001906001019080831161078d575b505050505081525050905092915050565b6608e1bc9bf040003414610831576040517f08c379a0000000000000000000000000000000000000000000000000000000008152600401610828906112e2565b60405180910390fd5b610839610c91565b81816000018190525033816020019073ffffffffffffffffffffffffffffffffffffffff16908173ffffffffffffffffffffffffffffffffffffffff16815250506000808473ffffffffffffffffffffffffffffffffffffffff1673ffffffffffffffffffffffffffffffffffffffff1681526020019081526020016000206005018190806001815401808255809150506001900390600052602060002090600402016000909190919091506000820151816000019080519060200190610901929190610ccf565b5060208201518160010160006101000a81548173ffffffffffffffffffffffffffffffffffffffff021916908373ffffffffffffffffffffffffffffffffffffffff1602179055506040820151816002019080519060200190610965929190610d55565b506060820151816003019080519060200190610982929190610d55565b505050505050565b826000803373ffffffffffffffffffffffffffffffffffffffff1673ffffffffffffffffffffffffffffffffffffffff16815260200190815260200160002060010190805190602001906109df929190610ccf565b50816000803373ffffffffffffffffffffffffffffffffffffffff1673ffffffffffffffffffffffffffffffffffffffff1681526020019081526020016000206002019080519060200190610a35929190610ccf565b50806000803373ffffffffffffffffffffffffffffffffffffffff1673ffffffffffffffffffffffffffffffffffffffff1681526020019081526020016000206003019080519060200190610a8b929190610ccf565b50505050565b60008060003373ffffffffffffffffffffffffffffffffffffffff1673ffffffffffffffffffffffffffffffffffffffff168152602001908152602001600020905060018160000160006101000a81548160ff02191690831515021790555083816001019080519060200190610b08929190610ccf565b5082816002019080519060200190610b21929190610ccf565b5081816003019080519060200190610b3a929190610ccf565b50428160040181905550806005016000610b549190610ddf565b50505050565b65e35fa931a0003414610ba2576040517f08c379a0000000000000000000000000000000000000000000000000000000008152600401610b99906112e2565b60405180910390fd5b6000808373ffffffffffffffffffffffffffffffffffffffff1673ffffffffffffffffffffffffffffffffffffffff1681526020019081526020016000206005018181548110610c1b577f4e487b7100000000000000000000000000000000000000000000000000000000600052603260045260246000fd5b9060005260206000209060040201600201339080600181540180825580915050600190039060005260206000200160009091909190916101000a81548173ffffffffffffffffffffffffffffffffffffffff021916908373ffffffffffffffffffffffffffffffffffffffff1602179055505050565b604051806080016040528060608152602001600073ffffffffffffffffffffffffffffffffffffffff16815260200160608152602001606081525090565b828054610cdb90611485565b90600052602060002090601f016020900481019282610cfd5760008555610d44565b82601f10610d1657805160ff1916838001178555610d44565b82800160010185558215610d44579182015b82811115610d43578251825591602001919060010190610d28565b5b509050610d519190610e03565b5090565b828054828255906000526020600020908101928215610dce579160200282015b82811115610dcd5782518260006101000a81548173ffffffffffffffffffffffffffffffffffffffff021916908373ffffffffffffffffffffffffffffffffffffffff16021790555091602001919060010190610d75565b5b509050610ddb9190610e03565b5090565b5080546000825560040290600052602060002090810190610e009190610e20565b50565b5b80821115610e1c576000816000905550600101610e04565b5090565b5b80821115610e8a5760008082016000610e3a9190610e8e565b6001820160006101000a81549073ffffffffffffffffffffffffffffffffffffffff0219169055600282016000610e719190610ece565b600382016000610e819190610ece565b50600401610e21565b5090565b508054610e9a90611485565b6000825580601f10610eac5750610ecb565b601f016020900490600052602060002090810190610eca9190610e03565b5b50565b5080546000825590600052602060002090810190610eec9190610e03565b50565b6000610f02610efd84611364565b61133f565b905082815260208101848484011115610f1a57600080fd5b610f25848285611443565b509392505050565b600081359050610f3c81611580565b92915050565b600082601f830112610f5357600080fd5b8135610f63848260208601610eef565b91505092915050565b600081359050610f7b81611597565b92915050565b600060208284031215610f9357600080fd5b6000610fa184828501610f2d565b91505092915050565b60008060408385031215610fbd57600080fd5b6000610fcb85828601610f2d565b925050602083013567ffffffffffffffff811115610fe857600080fd5b610ff485828601610f42565b9150509250929050565b6000806040838503121561101157600080fd5b600061101f85828601610f2d565b925050602061103085828601610f6c565b9150509250929050565b60008060006060848603121561104f57600080fd5b600084013567ffffffffffffffff81111561106957600080fd5b61107586828701610f42565b935050602084013567ffffffffffffffff81111561109257600080fd5b61109e86828701610f42565b925050604084013567ffffffffffffffff8111156110bb57600080fd5b6110c786828701610f42565b9150509250925092565b60006110dd83836110e9565b60208301905092915050565b6110f2816113fb565b82525050565b6000611103826113a5565b61110d81856113c8565b935061111883611395565b8060005b8381101561114957815161113088826110d1565b975061113b836113bb565b92505060018101905061111c565b5085935050505092915050565b61115f8161140d565b82525050565b6000611170826113b0565b61117a81856113d9565b935061118a818560208601611452565b61119381611546565b840191505092915050565b60006111a9826113b0565b6111b381856113ea565b93506111c3818560208601611452565b6111cc81611546565b840191505092915050565b60006111e46017836113ea565b91506111ef82611557565b602082019050919050565b600060808301600083015184820360008601526112178282611165565b915050602083015161122c60208601826110e9565b506040830151848203604086015261124482826110f8565b9150506060830151848203606086015261125e82826110f8565b9150508091505092915050565b61127481611439565b82525050565b600060a08201905061128f6000830188611156565b81810360208301526112a1818761119e565b905081810360408301526112b5818661119e565b905081810360608301526112c9818561119e565b90506112d8608083018461126b565b9695505050505050565b600060208201905081810360008301526112fb816111d7565b9050919050565b6000602082019050818103600083015261131c81846111fa565b905092915050565b6000602082019050611339600083018461126b565b92915050565b600061134961135a565b905061135582826114b7565b919050565b6000604051905090565b600067ffffffffffffffff82111561137f5761137e611517565b5b61138882611546565b9050602081019050919050565b6000819050602082019050919050565b600081519050919050565b600081519050919050565b6000602082019050919050565b600082825260208201905092915050565b600082825260208201905092915050565b600082825260208201905092915050565b600061140682611419565b9050919050565b60008115159050919050565b600073ffffffffffffffffffffffffffffffffffffffff82169050919050565b6000819050919050565b82818337600083830152505050565b60005b83811015611470578082015181840152602081019050611455565b8381111561147f576000848401525b50505050565b6000600282049050600182168061149d57607f821691505b602082108114156114b1576114b06114e8565b5b50919050565b6114c082611546565b810181811067ffffffffffffffff821117156114df576114de611517565b5b80604052505050565b7f4e487b7100000000000000000000000000000000000000000000000000000000600052602260045260246000fd5b7f4e487b7100000000000000000000000000000000000000000000000000000000600052604160045260246000fd5b6000601f19601f8301169050919050565b7f696e76616c696420616d6f756e7420737570706c696564000000000000000000600082015250565b611589816113fb565b811461159457600080fd5b50565b6115a081611439565b81146115ab57600080fd5b5056fea2646970667358221220ba5611ade31c1a80a357dd1f44c0bc86a48c76c2a0a06065857edec46073b18864736f6c63430008040033",
  "linkReferences": {},
  "deployedLinkReferences": {}
}