{
  "_format": "hh-sol-artifact-1",
  "contractName": "EthPoll",
  "sourceName": "contracts/EthPoll.sol",
  "abi": [
    {
      "inputs": [],
      "stateMutability": "nonpayable",
      "type": "constructor"
    },
    {
      "anonymous": false,
      "inputs": [
        {
          "indexed": true,
          "internalType": "string",
          "name": "avatarUrl",
          "type": "string"
        },
        {
          "indexed": false,
          "internalType": "string",
          "name": "title",
          "type": "string"
        },
        {
          "indexed": false,
          "internalType": "string",
          "name": "bio",
          "type": "string"
        },
        {
          "indexed": false,
          "internalType": "uint256",
          "name": "createdTimestamp",
          "type": "uint256"
        }
      ],
      "name": "NewPoll",
      "type": "event"
    },
    {
      "inputs": [
        {
          "internalType": "string",
          "name": "_avatarUrl",
          "type": "string"
        },
        {
          "internalType": "string",
          "name": "_title",
          "type": "string"
        },
        {
          "internalType": "string",
          "name": "_bio",
          "type": "string"
        }
      ],
      "name": "createPoll",
      "outputs": [],
      "stateMutability": "nonpayable",
      "type": "function"
    },
    {
      "inputs": [
        {
          "internalType": "address",
          "name": "_pollOwnerAddress",
          "type": "address"
        },
        {
          "internalType": "uint256",
          "name": "_proposalIndex",
          "type": "uint256"
        }
      ],
      "name": "downvote",
      "outputs": [],
      "stateMutability": "nonpayable",
      "type": "function"
    },
    {
      "inputs": [
        {
          "internalType": "string",
          "name": "_avatarUrl",
          "type": "string"
        },
        {
          "internalType": "string",
          "name": "_title",
          "type": "string"
        },
        {
          "internalType": "string",
          "name": "_bio",
          "type": "string"
        }
      ],
      "name": "editPoll",
      "outputs": [],
      "stateMutability": "nonpayable",
      "type": "function"
    },
    {
      "inputs": [
        {
          "internalType": "address",
          "name": "_pollOwnerAddress",
          "type": "address"
        },
        {
          "internalType": "uint256",
          "name": "_proposalIndex",
          "type": "uint256"
        }
      ],
      "name": "getProposal",
      "outputs": [
        {
          "components": [
            {
              "internalType": "string",
              "name": "title",
              "type": "string"
            },
            {
              "internalType": "address",
              "name": "createdBy",
              "type": "address"
            },
            {
              "internalType": "address[]",
              "name": "upvotes",
              "type": "address[]"
            },
            {
              "internalType": "address[]",
              "name": "downvotes",
              "type": "address[]"
            }
          ],
          "internalType": "struct EthPoll.Proposal",
          "name": "",
          "type": "tuple"
        }
      ],
      "stateMutability": "view",
      "type": "function"
    },
    {
      "inputs": [
        {
          "internalType": "address",
          "name": "_pollOwnerAddress",
          "type": "address"
        }
      ],
      "name": "getProposalCount",
      "outputs": [
        {
          "internalType": "uint256",
          "name": "count",
          "type": "uint256"
        }
      ],
      "stateMutability": "view",
      "type": "function"
    },
    {
      "inputs": [
        {
          "internalType": "string",
          "name": "_avatarUrl",
          "type": "string"
        },
        {
          "internalType": "string",
          "name": "_title",
          "type": "string"
        },
        {
          "internalType": "string",
          "name": "_bio",
          "type": "string"
        }
      ],
      "name": "overwriteWithNewPoll",
      "outputs": [],
      "stateMutability": "nonpayable",
      "type": "function"
    },
    {
      "inputs": [
        {
          "internalType": "address",
          "name": "",
          "type": "address"
        }
      ],
      "name": "polls",
      "outputs": [
        {
          "internalType": "bool",
          "name": "isActive",
          "type": "bool"
        },
        {
          "internalType": "string",
          "name": "avatarUrl",
          "type": "string"
        },
        {
          "internalType": "string",
          "name": "title",
          "type": "string"
        },
        {
          "internalType": "string",
          "name": "bio",
          "type": "string"
        },
        {
          "internalType": "uint256",
          "name": "createdTimestamp",
          "type": "uint256"
        }
      ],
      "stateMutability": "view",
      "type": "function"
    },
    {
      "inputs": [
        {
          "internalType": "address",
          "name": "_pollOwnerAddress",
          "type": "address"
        },
        {
          "internalType": "string",
          "name": "_title",
          "type": "string"
        }
      ],
      "name": "propose",
      "outputs": [],
      "stateMutability": "nonpayable",
      "type": "function"
    },
    {
      "inputs": [],
      "name": "totalPolls",
      "outputs": [
        {
          "internalType": "uint256",
          "name": "",
          "type": "uint256"
        }
      ],
      "stateMutability": "view",
      "type": "function"
    },
    {
      "inputs": [
        {
          "internalType": "address",
          "name": "_pollOwnerAddress",
          "type": "address"
        },
        {
          "internalType": "uint256",
          "name": "_proposalIndex",
          "type": "uint256"
        }
      ],
      "name": "upvote",
      "outputs": [],
      "stateMutability": "nonpayable",
      "type": "function"
    }
  ],
  "bytecode": "0x608060405234801561001057600080fd5b50611f9d806100206000396000f3fe608060405234801561001057600080fd5b506004361061009e5760003560e01c8063d6f0948c11610066578063d6f0948c14610171578063db8288a61461018d578063dcd6b5da146101a9578063e201201c146101c5578063ec511370146101e15761009e565b8063a1bfcaca146100a3578063a2eeeb2f146100d3578063c3dfae97146100f1578063cc858b2c14610125578063cfa38da714610141575b600080fd5b6100bd60048036038101906100b891906115bc565b6101fd565b6040516100ca9190611af8565b60405180910390f35b6100db6102db565b6040516100e89190611af8565b60405180910390f35b61010b600480360381019061010691906115bc565b6102e1565b60405161011c959493929190611989565b60405180910390f35b61013f600480360381019061013a9190611639565b6104bc565b005b61015b60048036038101906101569190611639565b6106cf565b6040516101689190611ad6565b60405180910390f35b61018b600480360381019061018691906115e5565b610a99565b005b6101a760048036038101906101a29190611675565b610c82565b005b6101c360048036038101906101be9190611675565b610e0f565b005b6101df60048036038101906101da9190611675565b610fa8565b005b6101fb60048036038101906101f69190611639565b6110b9565b005b6000600160008373ffffffffffffffffffffffffffffffffffffffff1673ffffffffffffffffffffffffffffffffffffffff16815260200190815260200160002060000160009054906101000a900460ff1661028e576040517f08c379a000000000000000000000000000000000000000000000000000000000815260040161028590611ab6565b60405180910390fd5b600160008373ffffffffffffffffffffffffffffffffffffffff1673ffffffffffffffffffffffffffffffffffffffff168152602001908152602001600020600501805490509050919050565b60005481565b60016020528060005260406000206000915090508060000160009054906101000a900460ff169080600101805461031790611c64565b80601f016020809104026020016040519081016040528092919081815260200182805461034390611c64565b80156103905780601f1061036557610100808354040283529160200191610390565b820191906000526020600020905b81548152906001019060200180831161037357829003601f168201915b5050505050908060020180546103a590611c64565b80601f01602080910402602001604051908101604052809291908181526020018280546103d190611c64565b801561041e5780601f106103f35761010080835404028352916020019161041e565b820191906000526020600020905b81548152906001019060200180831161040157829003601f168201915b50505050509080600301805461043390611c64565b80601f016020809104026020016040519081016040528092919081815260200182805461045f90611c64565b80156104ac5780601f10610481576101008083540402835291602001916104ac565b820191906000526020600020905b81548152906001019060200180831161048f57829003601f168201915b5050505050908060040154905085565b600160008373ffffffffffffffffffffffffffffffffffffffff1673ffffffffffffffffffffffffffffffffffffffff16815260200190815260200160002060000160009054906101000a900460ff1661054b576040517f08c379a000000000000000000000000000000000000000000000000000000000815260040161054290611ab6565b60405180910390fd5b600081101580156105a05750600160008373ffffffffffffffffffffffffffffffffffffffff1673ffffffffffffffffffffffffffffffffffffffff1681526020019081526020016000206005018054905081105b6105df576040517f08c379a00000000000000000000000000000000000000000000000000000000081526004016105d690611a96565b60405180910390fd5b600160008373ffffffffffffffffffffffffffffffffffffffff1673ffffffffffffffffffffffffffffffffffffffff1681526020019081526020016000206005018181548110610659577f4e487b7100000000000000000000000000000000000000000000000000000000600052603260045260246000fd5b9060005260206000209060040201600301339080600181540180825580915050600190039060005260206000200160009091909190916101000a81548173ffffffffffffffffffffffffffffffffffffffff021916908373ffffffffffffffffffffffffffffffffffffffff1602179055505050565b6106d76112cc565b600160008473ffffffffffffffffffffffffffffffffffffffff1673ffffffffffffffffffffffffffffffffffffffff16815260200190815260200160002060000160009054906101000a900460ff16610766576040517f08c379a000000000000000000000000000000000000000000000000000000000815260040161075d90611ab6565b60405180910390fd5b600082101580156107bb5750600160008473ffffffffffffffffffffffffffffffffffffffff1673ffffffffffffffffffffffffffffffffffffffff1681526020019081526020016000206005018054905082105b6107fa576040517f08c379a00000000000000000000000000000000000000000000000000000000081526004016107f190611a96565b60405180910390fd5b600160008473ffffffffffffffffffffffffffffffffffffffff1673ffffffffffffffffffffffffffffffffffffffff1681526020019081526020016000206005018281548110610874577f4e487b7100000000000000000000000000000000000000000000000000000000600052603260045260246000fd5b906000526020600020906004020160405180608001604052908160008201805461089d90611c64565b80601f01602080910402602001604051908101604052809291908181526020018280546108c990611c64565b80156109165780601f106108eb57610100808354040283529160200191610916565b820191906000526020600020905b8154815290600101906020018083116108f957829003601f168201915b505050505081526020016001820160009054906101000a900473ffffffffffffffffffffffffffffffffffffffff1673ffffffffffffffffffffffffffffffffffffffff1673ffffffffffffffffffffffffffffffffffffffff168152602001600282018054806020026020016040519081016040528092919081815260200182805480156109fa57602002820191906000526020600020905b8160009054906101000a900473ffffffffffffffffffffffffffffffffffffffff1673ffffffffffffffffffffffffffffffffffffffff16815260200190600101908083116109b0575b5050505050815260200160038201805480602002602001604051908101604052809291908181526020018280548015610a8857602002820191906000526020600020905b8160009054906101000a900473ffffffffffffffffffffffffffffffffffffffff1673ffffffffffffffffffffffffffffffffffffffff1681526020019060010190808311610a3e575b505050505081525050905092915050565b600160008373ffffffffffffffffffffffffffffffffffffffff1673ffffffffffffffffffffffffffffffffffffffff16815260200190815260200160002060000160009054906101000a900460ff16610b28576040517f08c379a0000000000000000000000000000000000000000000000000000000008152600401610b1f90611ab6565b60405180910390fd5b610b306112cc565b81816000018190525033816020019073ffffffffffffffffffffffffffffffffffffffff16908173ffffffffffffffffffffffffffffffffffffffff1681525050600160008473ffffffffffffffffffffffffffffffffffffffff1673ffffffffffffffffffffffffffffffffffffffff1681526020019081526020016000206005018190806001815401808255809150506001900390600052602060002090600402016000909190919091506000820151816000019080519060200190610bf992919061130a565b5060208201518160010160006101000a81548173ffffffffffffffffffffffffffffffffffffffff021916908373ffffffffffffffffffffffffffffffffffffffff1602179055506040820151816002019080519060200190610c5d929190611390565b506060820151816003019080519060200190610c7a929190611390565b505050505050565b600160003373ffffffffffffffffffffffffffffffffffffffff1673ffffffffffffffffffffffffffffffffffffffff16815260200190815260200160002060000160009054906101000a900460ff16610d11576040517f08c379a0000000000000000000000000000000000000000000000000000000008152600401610d0890611a56565b60405180910390fd5b6000600160003373ffffffffffffffffffffffffffffffffffffffff1673ffffffffffffffffffffffffffffffffffffffff168152602001908152602001600020905083816001019080519060200190610d6c92919061130a565b5082816002019080519060200190610d8592919061130a565b5081816003019080519060200190610d9e92919061130a565b50428160040181905550806005016000610db8919061141a565b83604051610dc69190611972565b60405180910390207f3642b338ea75900a51456671548d61f7e20f26aa267db7786beb8a6f4350e986848442604051610e01939291906119f1565b60405180910390a250505050565b600160003373ffffffffffffffffffffffffffffffffffffffff1673ffffffffffffffffffffffffffffffffffffffff16815260200190815260200160002060000160009054906101000a900460ff16610e9e576040517f08c379a0000000000000000000000000000000000000000000000000000000008152600401610e9590611a36565b60405180910390fd5b82600160003373ffffffffffffffffffffffffffffffffffffffff1673ffffffffffffffffffffffffffffffffffffffff1681526020019081526020016000206001019080519060200190610ef492919061130a565b5081600160003373ffffffffffffffffffffffffffffffffffffffff1673ffffffffffffffffffffffffffffffffffffffff1681526020019081526020016000206002019080519060200190610f4b92919061130a565b5080600160003373ffffffffffffffffffffffffffffffffffffffff1673ffffffffffffffffffffffffffffffffffffffff1681526020019081526020016000206003019080519060200190610fa292919061130a565b50505050565b600160003373ffffffffffffffffffffffffffffffffffffffff1673ffffffffffffffffffffffffffffffffffffffff16815260200190815260200160002060000160009054906101000a900460ff1615611038576040517f08c379a000000000000000000000000000000000000000000000000000000000815260040161102f90611a76565b60405180910390fd5b60008081548092919061104a90611cc7565b919050555060018060003373ffffffffffffffffffffffffffffffffffffffff1673ffffffffffffffffffffffffffffffffffffffff16815260200190815260200160002060000160006101000a81548160ff0219169083151502179055506110b4838383610c82565b505050565b600160008373ffffffffffffffffffffffffffffffffffffffff1673ffffffffffffffffffffffffffffffffffffffff16815260200190815260200160002060000160009054906101000a900460ff16611148576040517f08c379a000000000000000000000000000000000000000000000000000000000815260040161113f90611ab6565b60405180910390fd5b6000811015801561119d5750600160008373ffffffffffffffffffffffffffffffffffffffff1673ffffffffffffffffffffffffffffffffffffffff1681526020019081526020016000206005018054905081105b6111dc576040517f08c379a00000000000000000000000000000000000000000000000000000000081526004016111d390611a96565b60405180910390fd5b600160008373ffffffffffffffffffffffffffffffffffffffff1673ffffffffffffffffffffffffffffffffffffffff1681526020019081526020016000206005018181548110611256577f4e487b7100000000000000000000000000000000000000000000000000000000600052603260045260246000fd5b9060005260206000209060040201600201339080600181540180825580915050600190039060005260206000200160009091909190916101000a81548173ffffffffffffffffffffffffffffffffffffffff021916908373ffffffffffffffffffffffffffffffffffffffff1602179055505050565b604051806080016040528060608152602001600073ffffffffffffffffffffffffffffffffffffffff16815260200160608152602001606081525090565b82805461131690611c64565b90600052602060002090601f016020900481019282611338576000855561137f565b82601f1061135157805160ff191683800117855561137f565b8280016001018555821561137f579182015b8281111561137e578251825591602001919060010190611363565b5b50905061138c919061143e565b5090565b828054828255906000526020600020908101928215611409579160200282015b828111156114085782518260006101000a81548173ffffffffffffffffffffffffffffffffffffffff021916908373ffffffffffffffffffffffffffffffffffffffff160217905550916020019190600101906113b0565b5b509050611416919061143e565b5090565b508054600082556004029060005260206000209081019061143b919061145b565b50565b5b8082111561145757600081600090555060010161143f565b5090565b5b808211156114c5576000808201600061147591906114c9565b6001820160006101000a81549073ffffffffffffffffffffffffffffffffffffffff02191690556002820160006114ac9190611509565b6003820160006114bc9190611509565b5060040161145c565b5090565b5080546114d590611c64565b6000825580601f106114e75750611506565b601f016020900490600052602060002090810190611505919061143e565b5b50565b5080546000825590600052602060002090810190611527919061143e565b50565b600061153d61153884611b38565b611b13565b90508281526020810184848401111561155557600080fd5b611560848285611c22565b509392505050565b60008135905061157781611f39565b92915050565b600082601f83011261158e57600080fd5b813561159e84826020860161152a565b91505092915050565b6000813590506115b681611f50565b92915050565b6000602082840312156115ce57600080fd5b60006115dc84828501611568565b91505092915050565b600080604083850312156115f857600080fd5b600061160685828601611568565b925050602083013567ffffffffffffffff81111561162357600080fd5b61162f8582860161157d565b9150509250929050565b6000806040838503121561164c57600080fd5b600061165a85828601611568565b925050602061166b858286016115a7565b9150509250929050565b60008060006060848603121561168a57600080fd5b600084013567ffffffffffffffff8111156116a457600080fd5b6116b08682870161157d565b935050602084013567ffffffffffffffff8111156116cd57600080fd5b6116d98682870161157d565b925050604084013567ffffffffffffffff8111156116f657600080fd5b6117028682870161157d565b9150509250925092565b60006117188383611724565b60208301905092915050565b61172d81611bda565b82525050565b600061173e82611b79565b6117488185611b9c565b935061175383611b69565b8060005b8381101561178457815161176b888261170c565b975061177683611b8f565b925050600181019050611757565b5085935050505092915050565b61179a81611bec565b82525050565b60006117ab82611b84565b6117b58185611bad565b93506117c5818560208601611c31565b6117ce81611d9d565b840191505092915050565b60006117e482611b84565b6117ee8185611bbe565b93506117fe818560208601611c31565b61180781611d9d565b840191505092915050565b600061181d82611b84565b6118278185611bcf565b9350611837818560208601611c31565b80840191505092915050565b6000611850603483611bbe565b915061185b82611dae565b604082019050919050565b6000611873603b83611bbe565b915061187e82611dfd565b604082019050919050565b6000611896604883611bbe565b91506118a182611e4c565b606082019050919050565b60006118b9601c83611bbe565b91506118c482611ec1565b602082019050919050565b60006118dc602a83611bbe565b91506118e782611eea565b604082019050919050565b6000608083016000830151848203600086015261190f82826117a0565b91505060208301516119246020860182611724565b506040830151848203604086015261193c8282611733565b915050606083015184820360608601526119568282611733565b9150508091505092915050565b61196c81611c18565b82525050565b600061197e8284611812565b915081905092915050565b600060a08201905061199e6000830188611791565b81810360208301526119b081876117d9565b905081810360408301526119c481866117d9565b905081810360608301526119d881856117d9565b90506119e76080830184611963565b9695505050505050565b60006060820190508181036000830152611a0b81866117d9565b90508181036020830152611a1f81856117d9565b9050611a2e6040830184611963565b949350505050565b60006020820190508181036000830152611a4f81611843565b9050919050565b60006020820190508181036000830152611a6f81611866565b9050919050565b60006020820190508181036000830152611a8f81611889565b9050919050565b60006020820190508181036000830152611aaf816118ac565b9050919050565b60006020820190508181036000830152611acf816118cf565b9050919050565b60006020820190508181036000830152611af081846118f2565b905092915050565b6000602082019050611b0d6000830184611963565b92915050565b6000611b1d611b2e565b9050611b298282611c96565b919050565b6000604051905090565b600067ffffffffffffffff821115611b5357611b52611d6e565b5b611b5c82611d9d565b9050602081019050919050565b6000819050602082019050919050565b600081519050919050565b600081519050919050565b6000602082019050919050565b600082825260208201905092915050565b600082825260208201905092915050565b600082825260208201905092915050565b600081905092915050565b6000611be582611bf8565b9050919050565b60008115159050919050565b600073ffffffffffffffffffffffffffffffffffffffff82169050919050565b6000819050919050565b82818337600083830152505050565b60005b83811015611c4f578082015181840152602081019050611c34565b83811115611c5e576000848401525b50505050565b60006002820490506001821680611c7c57607f821691505b60208210811415611c9057611c8f611d3f565b5b50919050565b611c9f82611d9d565b810181811067ffffffffffffffff82111715611cbe57611cbd611d6e565b5b80604052505050565b6000611cd282611c18565b91507fffffffffffffffffffffffffffffffffffffffffffffffffffffffffffffffff821415611d0557611d04611d10565b5b600182019050919050565b7f4e487b7100000000000000000000000000000000000000000000000000000000600052601160045260246000fd5b7f4e487b7100000000000000000000000000000000000000000000000000000000600052602260045260246000fd5b7f4e487b7100000000000000000000000000000000000000000000000000000000600052604160045260246000fd5b6000601f19601f8301169050919050565b7f54686973206164647265737320646f6573206e6f742068617665206120706f6c60008201527f6c2e2055736520637265617465506f6c6c28292e000000000000000000000000602082015250565b7f54686973206164647265737320646f6573206e6f742068617665206120706f6c60008201527f6c2e2055736520637265617465506f6c6c282920696e73746561640000000000602082015250565b7f54686973206164647265737320616c726561647920636f6e7461696e7320612060008201527f706f6c6c2e20557365206f7665727772697465576974684e6577506f6c6c282960208201527f20696e7374656164000000000000000000000000000000000000000000000000604082015250565b7f546869732070726f706f73616c20646f6573206e6f7420657869737400000000600082015250565b7f5468657265206973206e6f20706f6c6c2062656c6f6e67696e6720746f20746860008201527f6973206164647265737300000000000000000000000000000000000000000000602082015250565b611f4281611bda565b8114611f4d57600080fd5b50565b611f5981611c18565b8114611f6457600080fd5b5056fea2646970667358221220ad92698a45dafeecb8b76dbd15944e1371de792dbebf04671c3e886cd9c4444164736f6c63430008040033",
  "linkReferences": {},
  "deployedLinkReferences": {}
}