{
  "_format": "hh-sol-artifact-1",
  "contractName": "DePoll",
  "sourceName": "contracts/DePoll.sol",
  "abi": [
    {
      "inputs": [],
      "stateMutability": "nonpayable",
      "type": "constructor"
    },
    {
      "inputs": [
        {
          "internalType": "string",
          "name": "_avatarUrl",
          "type": "string"
        },
        {
          "internalType": "string",
          "name": "_title",
          "type": "string"
        },
        {
          "internalType": "string",
          "name": "_about",
          "type": "string"
        }
      ],
      "name": "createPoll",
      "outputs": [],
      "stateMutability": "nonpayable",
      "type": "function"
    },
    {
      "inputs": [
        {
          "internalType": "address",
          "name": "_pollOwnerAddress",
          "type": "address"
        },
        {
          "internalType": "uint256",
          "name": "_proposalIndex",
          "type": "uint256"
        }
      ],
      "name": "downvote",
      "outputs": [],
      "stateMutability": "payable",
      "type": "function"
    },
    {
      "inputs": [
        {
          "internalType": "string",
          "name": "_avatarUrl",
          "type": "string"
        },
        {
          "internalType": "string",
          "name": "_title",
          "type": "string"
        },
        {
          "internalType": "string",
          "name": "_about",
          "type": "string"
        }
      ],
      "name": "editPoll",
      "outputs": [],
      "stateMutability": "nonpayable",
      "type": "function"
    },
    {
      "inputs": [],
      "name": "endCycle",
      "outputs": [],
      "stateMutability": "nonpayable",
      "type": "function"
    },
    {
      "inputs": [
        {
          "internalType": "address",
          "name": "_pollOwnerAddress",
          "type": "address"
        }
      ],
      "name": "getCycleCount",
      "outputs": [
        {
          "internalType": "uint256",
          "name": "count",
          "type": "uint256"
        }
      ],
      "stateMutability": "view",
      "type": "function"
    },
    {
      "inputs": [
        {
          "internalType": "address",
          "name": "_pollOwnerAddress",
          "type": "address"
        },
        {
          "internalType": "uint256",
          "name": "cycleIndex",
          "type": "uint256"
        }
      ],
      "name": "getCycleCutoff",
      "outputs": [
        {
          "internalType": "uint256",
          "name": "cutoff",
          "type": "uint256"
        }
      ],
      "stateMutability": "view",
      "type": "function"
    },
    {
      "inputs": [
        {
          "internalType": "address",
          "name": "_pollOwnerAddress",
          "type": "address"
        },
        {
          "internalType": "uint256",
          "name": "_proposalIndex",
          "type": "uint256"
        }
      ],
      "name": "getProposal",
      "outputs": [
        {
          "components": [
            {
              "internalType": "string",
              "name": "title",
              "type": "string"
            },
            {
              "internalType": "address",
              "name": "createdBy",
              "type": "address"
            },
            {
              "internalType": "address[]",
              "name": "upvotes",
              "type": "address[]"
            },
            {
              "internalType": "address[]",
              "name": "downvotes",
              "type": "address[]"
            }
          ],
          "internalType": "struct DePoll.Proposal",
          "name": "",
          "type": "tuple"
        }
      ],
      "stateMutability": "view",
      "type": "function"
    },
    {
      "inputs": [
        {
          "internalType": "address",
          "name": "_pollOwnerAddress",
          "type": "address"
        }
      ],
      "name": "getProposalCount",
      "outputs": [
        {
          "internalType": "uint256",
          "name": "count",
          "type": "uint256"
        }
      ],
      "stateMutability": "view",
      "type": "function"
    },
    {
      "inputs": [
        {
          "internalType": "address",
          "name": "_pollOwnerAddress",
          "type": "address"
        },
        {
          "internalType": "uint256",
          "name": "_cycleIndex",
          "type": "uint256"
        }
      ],
      "name": "getProposalRange",
      "outputs": [
        {
          "internalType": "uint256[]",
          "name": "proposalRange",
          "type": "uint256[]"
        }
      ],
      "stateMutability": "view",
      "type": "function"
    },
    {
      "inputs": [
        {
          "internalType": "address",
          "name": "_pollOwnerAddress",
          "type": "address"
        },
        {
          "internalType": "uint256",
          "name": "_startIdx",
          "type": "uint256"
        },
        {
          "internalType": "uint256",
          "name": "_cutoff",
          "type": "uint256"
        }
      ],
      "name": "getTotalContributed",
      "outputs": [
        {
          "internalType": "uint256",
          "name": "",
          "type": "uint256"
        }
      ],
      "stateMutability": "view",
      "type": "function"
    },
    {
      "inputs": [
        {
          "internalType": "address",
          "name": "_pollOwnerAddress",
          "type": "address"
        },
        {
          "internalType": "uint256",
          "name": "_startIdx",
          "type": "uint256"
        },
        {
          "internalType": "uint256",
          "name": "_cutoff",
          "type": "uint256"
        }
      ],
      "name": "getWinningProposals",
      "outputs": [
        {
          "internalType": "uint256[]",
          "name": "proposalIdxs",
          "type": "uint256[]"
        }
      ],
      "stateMutability": "view",
      "type": "function"
    },
    {
      "inputs": [
        {
          "internalType": "address",
          "name": "",
          "type": "address"
        }
      ],
      "name": "polls",
      "outputs": [
        {
          "internalType": "bool",
          "name": "isActive",
          "type": "bool"
        },
        {
          "internalType": "string",
          "name": "avatarUrl",
          "type": "string"
        },
        {
          "internalType": "string",
          "name": "title",
          "type": "string"
        },
        {
          "internalType": "string",
          "name": "about",
          "type": "string"
        },
        {
          "internalType": "uint256",
          "name": "createdTimestamp",
          "type": "uint256"
        }
      ],
      "stateMutability": "view",
      "type": "function"
    },
    {
      "inputs": [
        {
          "internalType": "address",
          "name": "_pollOwnerAddress",
          "type": "address"
        },
        {
          "internalType": "string",
          "name": "_title",
          "type": "string"
        }
      ],
      "name": "propose",
      "outputs": [],
      "stateMutability": "payable",
      "type": "function"
    },
    {
      "inputs": [
        {
          "internalType": "address",
          "name": "_pollOwnerAddress",
          "type": "address"
        },
        {
          "internalType": "uint256",
          "name": "_proposalIndex",
          "type": "uint256"
        }
      ],
      "name": "upvote",
      "outputs": [],
      "stateMutability": "payable",
      "type": "function"
    }
  ],
  "bytecode": "0x608060405234801561001057600080fd5b50613801806100206000396000f3fe6080604052600436106100dd5760003560e01c8063cf6dd1611161007f578063dcd6b5da11610059578063dcd6b5da146102e0578063e201201c14610309578063e6d973bd14610332578063ec5113701461036f576100dd565b8063cf6dd1611461024a578063cfa38da714610287578063d6f0948c146102c4576100dd565b80637dea1356116100bb5780637dea135614610173578063a1bfcaca146101b0578063c3dfae97146101ed578063cc858b2c1461022e576100dd565b8063084a4faf146100e2578063182b933c146100f95780637dd0888914610136575b600080fd5b3480156100ee57600080fd5b506100f761038b565b005b34801561010557600080fd5b50610120600480360381019061011b9190612db0565b610ed4565b60405161012d919061324e565b60405180910390f35b34801561014257600080fd5b5061015d60048036038101906101589190612db0565b611201565b60405161016a9190613142565b60405180910390f35b34801561017f57600080fd5b5061019a60048036038101906101959190612d74565b6117c6565b6040516101a7919061324e565b60405180910390f35b3480156101bc57600080fd5b506101d760048036038101906101d29190612cf7565b611854565b6040516101e4919061324e565b60405180910390f35b3480156101f957600080fd5b50610214600480360381019061020f9190612cf7565b6118a2565b604051610225959493929190613164565b60405180910390f35b61024860048036038101906102439190612d74565b611a7d565b005b34801561025657600080fd5b50610271600480360381019061026c9190612cf7565b611bb5565b60405161027e919061324e565b60405180910390f35b34801561029357600080fd5b506102ae60048036038101906102a99190612d74565b611c03565b6040516102bb919061322c565b60405180910390f35b6102de60048036038101906102d99190612d20565b611ea9565b005b3480156102ec57600080fd5b5061030760048036038101906103029190612dff565b61204b565b005b34801561031557600080fd5b50610330600480360381019061032b9190612dff565b612152565b005b34801561033e57600080fd5b5061035960048036038101906103549190612d74565b61221b565b6040516103669190613142565b60405180910390f35b61038960048036038101906103849190612d74565b6128d0565b005b600033905060008060003373ffffffffffffffffffffffffffffffffffffffff1673ffffffffffffffffffffffffffffffffffffffff16815260200190815260200160002060060180549050905060006103e5838361221b565b905080600181518110610421577f4e487b7100000000000000000000000000000000000000000000000000000000600052603260045260246000fd5b602002602001015181600081518110610463577f4e487b7100000000000000000000000000000000000000000000000000000000600052603260045260246000fd5b6020026020010151106104ab576040517f08c379a00000000000000000000000000000000000000000000000000000000081526004016104a2906131cc565b60405180910390fd5b600061053a84836000815181106104eb577f4e487b7100000000000000000000000000000000000000000000000000000000600052603260045260246000fd5b60200260200101518460018151811061052d577f4e487b7100000000000000000000000000000000000000000000000000000000600052603260045260246000fd5b6020026020010151610ed4565b905060006105cb858460008151811061057c577f4e487b7100000000000000000000000000000000000000000000000000000000600052603260045260246000fd5b6020026020010151856001815181106105be577f4e487b7100000000000000000000000000000000000000000000000000000000600052603260045260246000fd5b6020026020010151611201565b90506000815190506000805b828110156108fb5760008060008a73ffffffffffffffffffffffffffffffffffffffff1673ffffffffffffffffffffffffffffffffffffffff16815260200190815260200160002060050185838151811061065b577f4e487b7100000000000000000000000000000000000000000000000000000000600052603260045260246000fd5b60200260200101518154811061069a577f4e487b7100000000000000000000000000000000000000000000000000000000600052603260045260246000fd5b90600052602060002090600402016040518060800160405290816000820180546106c3906135a6565b80601f01602080910402602001604051908101604052809291908181526020018280546106ef906135a6565b801561073c5780601f106107115761010080835404028352916020019161073c565b820191906000526020600020905b81548152906001019060200180831161071f57829003601f168201915b505050505081526020016001820160009054906101000a900473ffffffffffffffffffffffffffffffffffffffff1673ffffffffffffffffffffffffffffffffffffffff1673ffffffffffffffffffffffffffffffffffffffff1681526020016002820180548060200260200160405190810160405280929190818152602001828054801561082057602002820191906000526020600020905b8160009054906101000a900473ffffffffffffffffffffffffffffffffffffffff1673ffffffffffffffffffffffffffffffffffffffff16815260200190600101908083116107d6575b50505050508152602001600382018054806020026020016040519081016040528092919081815260200182805480156108ae57602002820191906000526020600020905b8160009054906101000a900473ffffffffffffffffffffffffffffffffffffffff1673ffffffffffffffffffffffffffffffffffffffff1681526020019060010190808311610864575b5050505050815250509050600a836108c69190613369565b925060018160400151516108da91906133f0565b836108e59190613369565b92505080806108f390613609565b9150506105d7565b506000818561090a91906133bf565b90506000828261091a91906133f0565b8661092591906134de565b905060005b84811015610e1c5760008060008c73ffffffffffffffffffffffffffffffffffffffff1673ffffffffffffffffffffffffffffffffffffffff1681526020019081526020016000206005018783815181106109ae577f4e487b7100000000000000000000000000000000000000000000000000000000600052603260045260246000fd5b6020026020010151815481106109ed577f4e487b7100000000000000000000000000000000000000000000000000000000600052603260045260246000fd5b9060005260206000209060040201604051806080016040529081600082018054610a16906135a6565b80601f0160208091040260200160405190810160405280929190818152602001828054610a42906135a6565b8015610a8f5780601f10610a6457610100808354040283529160200191610a8f565b820191906000526020600020905b815481529060010190602001808311610a7257829003601f168201915b505050505081526020016001820160009054906101000a900473ffffffffffffffffffffffffffffffffffffffff1673ffffffffffffffffffffffffffffffffffffffff1673ffffffffffffffffffffffffffffffffffffffff16815260200160028201805480602002602001604051908101604052809291908181526020018280548015610b7357602002820191906000526020600020905b8160009054906101000a900473ffffffffffffffffffffffffffffffffffffffff1673ffffffffffffffffffffffffffffffffffffffff1681526020019060010190808311610b29575b5050505050815260200160038201805480602002602001604051908101604052809291908181526020018280548015610c0157602002820191906000526020600020905b8160009054906101000a900473ffffffffffffffffffffffffffffffffffffffff1673ffffffffffffffffffffffffffffffffffffffff1681526020019060010190808311610bb7575b50505050508152505090506000600a85610c1b91906133f0565b90506000831415610c35578381610c329190613369565b90505b6000826020015173ffffffffffffffffffffffffffffffffffffffff1682604051610c5f9061312d565b60006040518083038185875af1925050503d8060008114610c9c576040519150601f19603f3d011682016040523d82523d6000602084013e610ca1565b606091505b5050905080610ce5576040517f08c379a0000000000000000000000000000000000000000000000000000000008152600401610cdc906131ec565b60405180910390fd5b60005b836040015151811015610e0557600084604001518281518110610d34577f4e487b7100000000000000000000000000000000000000000000000000000000600052603260045260246000fd5b602002602001015173ffffffffffffffffffffffffffffffffffffffff16600189610d5f91906133f0565b604051610d6b9061312d565b60006040518083038185875af1925050503d8060008114610da8576040519150601f19603f3d011682016040523d82523d6000602084013e610dad565b606091505b5050905080610df1576040517f08c379a0000000000000000000000000000000000000000000000000000000008152600401610de8906131ec565b60405180910390fd5b508080610dfd90613609565b915050610ce8565b505050508080610e1490613609565b91505061092a565b506000808a73ffffffffffffffffffffffffffffffffffffffff1673ffffffffffffffffffffffffffffffffffffffff1681526020019081526020016000206006016000808b73ffffffffffffffffffffffffffffffffffffffff1673ffffffffffffffffffffffffffffffffffffffff168152602001908152602001600020600501805490509080600181540180825580915050600190039060005260206000200160009091909190915055505050505050505050565b6000806000905060008490505b838110156111f55760008060008873ffffffffffffffffffffffffffffffffffffffff1673ffffffffffffffffffffffffffffffffffffffff1681526020019081526020016000206005018281548110610f64577f4e487b7100000000000000000000000000000000000000000000000000000000600052603260045260246000fd5b9060005260206000209060040201604051806080016040529081600082018054610f8d906135a6565b80601f0160208091040260200160405190810160405280929190818152602001828054610fb9906135a6565b80156110065780601f10610fdb57610100808354040283529160200191611006565b820191906000526020600020905b815481529060010190602001808311610fe957829003601f168201915b505050505081526020016001820160009054906101000a900473ffffffffffffffffffffffffffffffffffffffff1673ffffffffffffffffffffffffffffffffffffffff1673ffffffffffffffffffffffffffffffffffffffff168152602001600282018054806020026020016040519081016040528092919081815260200182805480156110ea57602002820191906000526020600020905b8160009054906101000a900473ffffffffffffffffffffffffffffffffffffffff1673ffffffffffffffffffffffffffffffffffffffff16815260200190600101908083116110a0575b505050505081526020016003820180548060200260200160405190810160405280929190818152602001828054801561117857602002820191906000526020600020905b8160009054906101000a900473ffffffffffffffffffffffffffffffffffffffff1673ffffffffffffffffffffffffffffffffffffffff168152602001906001019080831161112e575b50505050508152505090506608e1bc9bf04000836111969190613369565b925065e35fa931a0008160400151516111af91906133f0565b836111ba9190613369565b92506601c6bf526340008160600151516111d491906133f0565b836111df9190613369565b92505080806111ed90613609565b915050610ee1565b50809150509392505050565b606060007ffffffffffffffffffffffffffffffffffffffffffffffffffffffffffffffc1890506000600567ffffffffffffffff81111561126b577f4e487b7100000000000000000000000000000000000000000000000000000000600052604160045260246000fd5b6040519080825280602002602001820160405280156112995781602001602082028036833780820191505090505b5090506000808690505b8581101561169f5760008060008a73ffffffffffffffffffffffffffffffffffffffff1673ffffffffffffffffffffffffffffffffffffffff1681526020019081526020016000206005018281548110611326577f4e487b7100000000000000000000000000000000000000000000000000000000600052603260045260246000fd5b906000526020600020906004020160405180608001604052908160008201805461134f906135a6565b80601f016020809104026020016040519081016040528092919081815260200182805461137b906135a6565b80156113c85780601f1061139d576101008083540402835291602001916113c8565b820191906000526020600020905b8154815290600101906020018083116113ab57829003601f168201915b505050505081526020016001820160009054906101000a900473ffffffffffffffffffffffffffffffffffffffff1673ffffffffffffffffffffffffffffffffffffffff1673ffffffffffffffffffffffffffffffffffffffff168152602001600282018054806020026020016040519081016040528092919081815260200182805480156114ac57602002820191906000526020600020905b8160009054906101000a900473ffffffffffffffffffffffffffffffffffffffff1673ffffffffffffffffffffffffffffffffffffffff1681526020019060010190808311611462575b505050505081526020016003820180548060200260200160405190810160405280929190818152602001828054801561153a57602002820191906000526020600020905b8160009054906101000a900473ffffffffffffffffffffffffffffffffffffffff1673ffffffffffffffffffffffffffffffffffffffff16815260200190600101908083116114f0575b5050505050815250509050600081606001515182604001515161155d919061344a565b90508581131561162c57809550600567ffffffffffffffff8111156115ab577f4e487b7100000000000000000000000000000000000000000000000000000000600052604160045260246000fd5b6040519080825280602002602001820160405280156115d95781602001602082028036833780820191505090505b5094508285600081518110611617577f4e487b7100000000000000000000000000000000000000000000000000000000600052603260045260246000fd5b6020026020010181815250506001935061168a565b85811415611689578285858151811061166e577f4e487b7100000000000000000000000000000000000000000000000000000000600052603260045260246000fd5b602002602001018181525050838061168590613609565b9450505b5b5050808061169790613609565b9150506112a3565b5060008167ffffffffffffffff8111156116e2577f4e487b7100000000000000000000000000000000000000000000000000000000600052604160045260246000fd5b6040519080825280602002602001820160405280156117105781602001602082028036833780820191505090505b50905060005b828110156117b757838181518110611757577f4e487b7100000000000000000000000000000000000000000000000000000000600052603260045260246000fd5b6020026020010151828281518110611798577f4e487b7100000000000000000000000000000000000000000000000000000000600052603260045260246000fd5b60200260200101818152505080806117af90613609565b915050611716565b50809450505050509392505050565b60008060008473ffffffffffffffffffffffffffffffffffffffff1673ffffffffffffffffffffffffffffffffffffffff1681526020019081526020016000206006018281548110611841577f4e487b7100000000000000000000000000000000000000000000000000000000600052603260045260246000fd5b9060005260206000200154905092915050565b60008060008373ffffffffffffffffffffffffffffffffffffffff1673ffffffffffffffffffffffffffffffffffffffff168152602001908152602001600020600501805490509050919050565b60006020528060005260406000206000915090508060000160009054906101000a900460ff16908060010180546118d8906135a6565b80601f0160208091040260200160405190810160405280929190818152602001828054611904906135a6565b80156119515780601f1061192657610100808354040283529160200191611951565b820191906000526020600020905b81548152906001019060200180831161193457829003601f168201915b505050505090806002018054611966906135a6565b80601f0160208091040260200160405190810160405280929190818152602001828054611992906135a6565b80156119df5780601f106119b4576101008083540402835291602001916119df565b820191906000526020600020905b8154815290600101906020018083116119c257829003601f168201915b5050505050908060030180546119f4906135a6565b80601f0160208091040260200160405190810160405280929190818152602001828054611a20906135a6565b8015611a6d5780601f10611a4257610100808354040283529160200191611a6d565b820191906000526020600020905b815481529060010190602001808311611a5057829003601f168201915b5050505050908060040154905085565b6601c6bf526340003414611ac6576040517f08c379a0000000000000000000000000000000000000000000000000000000008152600401611abd9061320c565b60405180910390fd5b6000808373ffffffffffffffffffffffffffffffffffffffff1673ffffffffffffffffffffffffffffffffffffffff1681526020019081526020016000206005018181548110611b3f577f4e487b7100000000000000000000000000000000000000000000000000000000600052603260045260246000fd5b9060005260206000209060040201600301339080600181540180825580915050600190039060005260206000200160009091909190916101000a81548173ffffffffffffffffffffffffffffffffffffffff021916908373ffffffffffffffffffffffffffffffffffffffff1602179055505050565b60008060008373ffffffffffffffffffffffffffffffffffffffff1673ffffffffffffffffffffffffffffffffffffffff168152602001908152602001600020600601805490509050919050565b611c0b612a07565b6000808473ffffffffffffffffffffffffffffffffffffffff1673ffffffffffffffffffffffffffffffffffffffff1681526020019081526020016000206005018281548110611c84577f4e487b7100000000000000000000000000000000000000000000000000000000600052603260045260246000fd5b9060005260206000209060040201604051806080016040529081600082018054611cad906135a6565b80601f0160208091040260200160405190810160405280929190818152602001828054611cd9906135a6565b8015611d265780601f10611cfb57610100808354040283529160200191611d26565b820191906000526020600020905b815481529060010190602001808311611d0957829003601f168201915b505050505081526020016001820160009054906101000a900473ffffffffffffffffffffffffffffffffffffffff1673ffffffffffffffffffffffffffffffffffffffff1673ffffffffffffffffffffffffffffffffffffffff16815260200160028201805480602002602001604051908101604052809291908181526020018280548015611e0a57602002820191906000526020600020905b8160009054906101000a900473ffffffffffffffffffffffffffffffffffffffff1673ffffffffffffffffffffffffffffffffffffffff1681526020019060010190808311611dc0575b5050505050815260200160038201805480602002602001604051908101604052809291908181526020018280548015611e9857602002820191906000526020600020905b8160009054906101000a900473ffffffffffffffffffffffffffffffffffffffff1673ffffffffffffffffffffffffffffffffffffffff1681526020019060010190808311611e4e575b505050505081525050905092915050565b6608e1bc9bf040003414611ef2576040517f08c379a0000000000000000000000000000000000000000000000000000000008152600401611ee99061320c565b60405180910390fd5b611efa612a07565b81816000018190525033816020019073ffffffffffffffffffffffffffffffffffffffff16908173ffffffffffffffffffffffffffffffffffffffff16815250506000808473ffffffffffffffffffffffffffffffffffffffff1673ffffffffffffffffffffffffffffffffffffffff1681526020019081526020016000206005018190806001815401808255809150506001900390600052602060002090600402016000909190919091506000820151816000019080519060200190611fc2929190612a45565b5060208201518160010160006101000a81548173ffffffffffffffffffffffffffffffffffffffff021916908373ffffffffffffffffffffffffffffffffffffffff1602179055506040820151816002019080519060200190612026929190612acb565b506060820151816003019080519060200190612043929190612acb565b505050505050565b826000803373ffffffffffffffffffffffffffffffffffffffff1673ffffffffffffffffffffffffffffffffffffffff16815260200190815260200160002060010190805190602001906120a0929190612a45565b50816000803373ffffffffffffffffffffffffffffffffffffffff1673ffffffffffffffffffffffffffffffffffffffff16815260200190815260200160002060020190805190602001906120f6929190612a45565b50806000803373ffffffffffffffffffffffffffffffffffffffff1673ffffffffffffffffffffffffffffffffffffffff168152602001908152602001600020600301908051906020019061214c929190612a45565b50505050565b60008060003373ffffffffffffffffffffffffffffffffffffffff1673ffffffffffffffffffffffffffffffffffffffff168152602001908152602001600020905060018160000160006101000a81548160ff021916908315150217905550838160010190805190602001906121c9929190612a45565b50828160020190805190602001906121e2929190612a45565b50818160030190805190602001906121fb929190612a45565b504281600401819055508060050160006122159190612b55565b50505050565b606060008060008573ffffffffffffffffffffffffffffffffffffffff1673ffffffffffffffffffffffffffffffffffffffff1681526020019081526020016000206040518060e00160405290816000820160009054906101000a900460ff16151515158152602001600182018054612293906135a6565b80601f01602080910402602001604051908101604052809291908181526020018280546122bf906135a6565b801561230c5780601f106122e15761010080835404028352916020019161230c565b820191906000526020600020905b8154815290600101906020018083116122ef57829003601f168201915b50505050508152602001600282018054612325906135a6565b80601f0160208091040260200160405190810160405280929190818152602001828054612351906135a6565b801561239e5780601f106123735761010080835404028352916020019161239e565b820191906000526020600020905b81548152906001019060200180831161238157829003601f168201915b505050505081526020016003820180546123b7906135a6565b80601f01602080910402602001604051908101604052809291908181526020018280546123e3906135a6565b80156124305780601f1061240557610100808354040283529160200191612430565b820191906000526020600020905b81548152906001019060200180831161241357829003601f168201915b505050505081526020016004820154815260200160058201805480602002602001604051908101604052809291908181526020016000905b8282101561269e578382906000526020600020906004020160405180608001604052908160008201805461249b906135a6565b80601f01602080910402602001604051908101604052809291908181526020018280546124c7906135a6565b80156125145780601f106124e957610100808354040283529160200191612514565b820191906000526020600020905b8154815290600101906020018083116124f757829003601f168201915b505050505081526020016001820160009054906101000a900473ffffffffffffffffffffffffffffffffffffffff1673ffffffffffffffffffffffffffffffffffffffff1673ffffffffffffffffffffffffffffffffffffffff168152602001600282018054806020026020016040519081016040528092919081815260200182805480156125f857602002820191906000526020600020905b8160009054906101000a900473ffffffffffffffffffffffffffffffffffffffff1673ffffffffffffffffffffffffffffffffffffffff16815260200190600101908083116125ae575b505050505081526020016003820180548060200260200160405190810160405280929190818152602001828054801561268657602002820191906000526020600020905b8160009054906101000a900473ffffffffffffffffffffffffffffffffffffffff1673ffffffffffffffffffffffffffffffffffffffff168152602001906001019080831161263c575b50505050508152505081526020019060010190612468565b505050508152602001600682018054806020026020016040519081016040528092919081815260200182805480156126f557602002820191906000526020600020905b8154815260200190600101908083116126e1575b505050505081525050905060008160a00151905060008260c00151905060008086111561276c578160018761272a91906134de565b81518110612761577f4e487b7100000000000000000000000000000000000000000000000000000000600052603260045260246000fd5b602002602001015190505b60008351905082518710156127bf578287815181106127b4577f4e487b7100000000000000000000000000000000000000000000000000000000600052603260045260246000fd5b602002602001015190505b6000600267ffffffffffffffff811115612802577f4e487b7100000000000000000000000000000000000000000000000000000000600052604160045260246000fd5b6040519080825280602002602001820160405280156128305781602001602082028036833780820191505090505b509050828160008151811061286e577f4e487b7100000000000000000000000000000000000000000000000000000000600052603260045260246000fd5b60200260200101818152505081816001815181106128b5577f4e487b7100000000000000000000000000000000000000000000000000000000600052603260045260246000fd5b60200260200101818152505080965050505050505092915050565b65e35fa931a0003414612918576040517f08c379a000000000000000000000000000000000000000000000000000000000815260040161290f9061320c565b60405180910390fd5b6000808373ffffffffffffffffffffffffffffffffffffffff1673ffffffffffffffffffffffffffffffffffffffff1681526020019081526020016000206005018181548110612991577f4e487b7100000000000000000000000000000000000000000000000000000000600052603260045260246000fd5b9060005260206000209060040201600201339080600181540180825580915050600190039060005260206000200160009091909190916101000a81548173ffffffffffffffffffffffffffffffffffffffff021916908373ffffffffffffffffffffffffffffffffffffffff1602179055505050565b604051806080016040528060608152602001600073ffffffffffffffffffffffffffffffffffffffff16815260200160608152602001606081525090565b828054612a51906135a6565b90600052602060002090601f016020900481019282612a735760008555612aba565b82601f10612a8c57805160ff1916838001178555612aba565b82800160010185558215612aba579182015b82811115612ab9578251825591602001919060010190612a9e565b5b509050612ac79190612b79565b5090565b828054828255906000526020600020908101928215612b44579160200282015b82811115612b435782518260006101000a81548173ffffffffffffffffffffffffffffffffffffffff021916908373ffffffffffffffffffffffffffffffffffffffff16021790555091602001919060010190612aeb565b5b509050612b519190612b79565b5090565b5080546000825560040290600052602060002090810190612b769190612b96565b50565b5b80821115612b92576000816000905550600101612b7a565b5090565b5b80821115612c005760008082016000612bb09190612c04565b6001820160006101000a81549073ffffffffffffffffffffffffffffffffffffffff0219169055600282016000612be79190612c44565b600382016000612bf79190612c44565b50600401612b97565b5090565b508054612c10906135a6565b6000825580601f10612c225750612c41565b601f016020900490600052602060002090810190612c409190612b79565b5b50565b5080546000825590600052602060002090810190612c629190612b79565b50565b6000612c78612c738461328e565b613269565b905082815260208101848484011115612c9057600080fd5b612c9b848285613564565b509392505050565b600081359050612cb28161379d565b92915050565b600082601f830112612cc957600080fd5b8135612cd9848260208601612c65565b91505092915050565b600081359050612cf1816137b4565b92915050565b600060208284031215612d0957600080fd5b6000612d1784828501612ca3565b91505092915050565b60008060408385031215612d3357600080fd5b6000612d4185828601612ca3565b925050602083013567ffffffffffffffff811115612d5e57600080fd5b612d6a85828601612cb8565b9150509250929050565b60008060408385031215612d8757600080fd5b6000612d9585828601612ca3565b9250506020612da685828601612ce2565b9150509250929050565b600080600060608486031215612dc557600080fd5b6000612dd386828701612ca3565b9350506020612de486828701612ce2565b9250506040612df586828701612ce2565b9150509250925092565b600080600060608486031215612e1457600080fd5b600084013567ffffffffffffffff811115612e2e57600080fd5b612e3a86828701612cb8565b935050602084013567ffffffffffffffff811115612e5757600080fd5b612e6386828701612cb8565b925050604084013567ffffffffffffffff811115612e8057600080fd5b612e8c86828701612cb8565b9150509250925092565b6000612ea28383612ec6565b60208301905092915050565b6000612eba838361310f565b60208301905092915050565b612ecf81613512565b82525050565b6000612ee0826132df565b612eea818561331a565b9350612ef5836132bf565b8060005b83811015612f26578151612f0d8882612e96565b9750612f1883613300565b925050600181019050612ef9565b5085935050505092915050565b6000612f3e826132ea565b612f48818561332b565b9350612f53836132cf565b8060005b83811015612f84578151612f6b8882612eae565b9750612f768361330d565b925050600181019050612f57565b5085935050505092915050565b612f9a81613524565b82525050565b6000612fab826132f5565b612fb58185613347565b9350612fc5818560208601613573565b612fce8161370e565b840191505092915050565b6000612fe4826132f5565b612fee8185613358565b9350612ffe818560208601613573565b6130078161370e565b840191505092915050565b600061301f601a83613358565b915061302a8261371f565b602082019050919050565b6000613042601483613358565b915061304d82613748565b602082019050919050565b6000613065601783613358565b915061307082613771565b602082019050919050565b600061308860008361333c565b91506130938261379a565b600082019050919050565b600060808301600083015184820360008601526130bb8282612fa0565b91505060208301516130d06020860182612ec6565b50604083015184820360408601526130e88282612ed5565b915050606083015184820360608601526131028282612ed5565b9150508091505092915050565b6131188161355a565b82525050565b6131278161355a565b82525050565b60006131388261307b565b9150819050919050565b6000602082019050818103600083015261315c8184612f33565b905092915050565b600060a0820190506131796000830188612f91565b818103602083015261318b8187612fd9565b9050818103604083015261319f8186612fd9565b905081810360608301526131b38185612fd9565b90506131c2608083018461311e565b9695505050505050565b600060208201905081810360008301526131e581613012565b9050919050565b6000602082019050818103600083015261320581613035565b9050919050565b6000602082019050818103600083015261322581613058565b9050919050565b60006020820190508181036000830152613246818461309e565b905092915050565b6000602082019050613263600083018461311e565b92915050565b6000613273613284565b905061327f82826135d8565b919050565b6000604051905090565b600067ffffffffffffffff8211156132a9576132a86136df565b5b6132b28261370e565b9050602081019050919050565b6000819050602082019050919050565b6000819050602082019050919050565b600081519050919050565b600081519050919050565b600081519050919050565b6000602082019050919050565b6000602082019050919050565b600082825260208201905092915050565b600082825260208201905092915050565b600081905092915050565b600082825260208201905092915050565b600082825260208201905092915050565b60006133748261355a565b915061337f8361355a565b9250827fffffffffffffffffffffffffffffffffffffffffffffffffffffffffffffffff038211156133b4576133b3613652565b5b828201905092915050565b60006133ca8261355a565b91506133d58361355a565b9250826133e5576133e4613681565b5b828204905092915050565b60006133fb8261355a565b91506134068361355a565b9250817fffffffffffffffffffffffffffffffffffffffffffffffffffffffffffffffff048311821515161561343f5761343e613652565b5b828202905092915050565b600061345582613530565b915061346083613530565b9250827f80000000000000000000000000000000000000000000000000000000000000000182126000841215161561349b5761349a613652565b5b827f7fffffffffffffffffffffffffffffffffffffffffffffffffffffffffffffff0182136000841216156134d3576134d2613652565b5b828203905092915050565b60006134e98261355a565b91506134f48361355a565b92508282101561350757613506613652565b5b828203905092915050565b600061351d8261353a565b9050919050565b60008115159050919050565b6000819050919050565b600073ffffffffffffffffffffffffffffffffffffffff82169050919050565b6000819050919050565b82818337600083830152505050565b60005b83811015613591578082015181840152602081019050613576565b838111156135a0576000848401525b50505050565b600060028204905060018216806135be57607f821691505b602082108114156135d2576135d16136b0565b5b50919050565b6135e18261370e565b810181811067ffffffffffffffff82111715613600576135ff6136df565b5b80604052505050565b60006136148261355a565b91507fffffffffffffffffffffffffffffffffffffffffffffffffffffffffffffffff82141561364757613646613652565b5b600182019050919050565b7f4e487b7100000000000000000000000000000000000000000000000000000000600052601160045260246000fd5b7f4e487b7100000000000000000000000000000000000000000000000000000000600052601260045260246000fd5b7f4e487b7100000000000000000000000000000000000000000000000000000000600052602260045260246000fd5b7f4e487b7100000000000000000000000000000000000000000000000000000000600052604160045260246000fd5b6000601f19601f8301169050919050565b7f546865726520617265206e6f206e65772070726f706f73616c73000000000000600082015250565b7f4661696c656420746f2073656e64204574686572000000000000000000000000600082015250565b7f696e76616c696420616d6f756e7420737570706c696564000000000000000000600082015250565b50565b6137a681613512565b81146137b157600080fd5b50565b6137bd8161355a565b81146137c857600080fd5b5056fea264697066735822122039d915b1423ef953bb34af4386fc634b4ca5cf0f8afe094ffac5ec95db1132a064736f6c63430008040033",
  "linkReferences": {},
  "deployedLinkReferences": {}
}